{
  "contractName": "TreasureFactory",
  "abi": [
    {
      "inputs": [],
      "stateMutability": "nonpayable",
      "type": "constructor"
    },
    {
      "inputs": [
        {
          "internalType": "uint256",
          "name": "",
          "type": "uint256"
        }
      ],
      "name": "activities",
      "outputs": [
        {
          "internalType": "address",
          "name": "user",
          "type": "address"
        },
        {
          "internalType": "address",
          "name": "contractAddress",
          "type": "address"
        },
        {
          "internalType": "int8",
          "name": "side",
          "type": "int8"
        },
        {
          "internalType": "uint256",
          "name": "timestamp",
          "type": "uint256"
        }
      ],
      "stateMutability": "view",
      "type": "function",
      "constant": true
    },
    {
      "inputs": [
        {
          "internalType": "address",
          "name": "",
          "type": "address"
        }
      ],
      "name": "activity",
      "outputs": [
        {
          "internalType": "address",
          "name": "user",
          "type": "address"
        },
        {
          "internalType": "address",
          "name": "contractAddress",
          "type": "address"
        },
        {
          "internalType": "int8",
          "name": "side",
          "type": "int8"
        },
        {
          "internalType": "uint256",
          "name": "timestamp",
          "type": "uint256"
        }
      ],
      "stateMutability": "view",
      "type": "function",
      "constant": true
    },
    {
      "inputs": [],
      "name": "factoryAddress",
      "outputs": [
        {
          "internalType": "address",
          "name": "",
          "type": "address"
        }
      ],
      "stateMutability": "view",
      "type": "function",
      "constant": true
    },
    {
      "inputs": [
        {
          "internalType": "uint256",
          "name": "",
          "type": "uint256"
        }
      ],
      "name": "hiders",
      "outputs": [
        {
          "internalType": "address",
          "name": "",
          "type": "address"
        }
      ],
      "stateMutability": "view",
      "type": "function",
      "constant": true
    },
    {
      "inputs": [
        {
          "internalType": "address",
          "name": "",
          "type": "address"
        }
      ],
      "name": "isHider",
      "outputs": [
        {
          "internalType": "bool",
          "name": "",
          "type": "bool"
        }
      ],
      "stateMutability": "view",
      "type": "function",
      "constant": true
    },
    {
      "inputs": [
        {
          "internalType": "uint256",
          "name": "",
          "type": "uint256"
        }
      ],
      "name": "treasureContracts",
      "outputs": [
        {
          "internalType": "contract Treasure",
          "name": "",
          "type": "address"
        }
      ],
      "stateMutability": "view",
      "type": "function",
      "constant": true
    },
    {
      "inputs": [],
      "name": "treasureContractsCount",
      "outputs": [
        {
          "internalType": "uint256",
          "name": "",
          "type": "uint256"
        }
      ],
      "stateMutability": "view",
      "type": "function",
      "constant": true
    },
    {
      "inputs": [
        {
          "internalType": "string",
          "name": "_title",
          "type": "string"
        },
        {
          "internalType": "string",
          "name": "_hint",
          "type": "string"
        },
        {
          "internalType": "string",
          "name": "_latitude",
          "type": "string"
        },
        {
          "internalType": "string",
          "name": "_longitude",
          "type": "string"
        }
      ],
      "name": "createTreasure",
      "outputs": [],
      "stateMutability": "nonpayable",
      "type": "function"
    },
    {
      "inputs": [],
      "name": "getAllHiders",
      "outputs": [
        {
          "internalType": "address[]",
          "name": "",
          "type": "address[]"
        }
      ],
      "stateMutability": "view",
      "type": "function",
      "constant": true
    },
    {
      "inputs": [],
      "name": "getTreasureContracts",
      "outputs": [
        {
          "internalType": "contract Treasure[]",
          "name": "",
          "type": "address[]"
        }
      ],
      "stateMutability": "view",
      "type": "function",
      "constant": true
    },
    {
      "inputs": [],
      "name": "getUsersActivity",
      "outputs": [
        {
          "components": [
            {
              "internalType": "address",
              "name": "user",
              "type": "address"
            },
            {
              "internalType": "address",
              "name": "contractAddress",
              "type": "address"
            },
            {
              "internalType": "int8",
              "name": "side",
              "type": "int8"
            },
            {
              "internalType": "uint256",
              "name": "timestamp",
              "type": "uint256"
            }
          ],
          "internalType": "struct TreasureFactory.UserActivity[]",
          "name": "",
          "type": "tuple[]"
        }
      ],
      "stateMutability": "view",
      "type": "function",
      "constant": true
    },
    {
      "inputs": [
        {
          "internalType": "address",
          "name": "_creator",
          "type": "address"
        },
        {
          "internalType": "address",
          "name": "_treasureAddress",
          "type": "address"
        },
        {
          "internalType": "int8",
          "name": "_side",
          "type": "int8"
        }
      ],
      "name": "addActivity",
      "outputs": [],
      "stateMutability": "nonpayable",
      "type": "function"
    }
  ],
  "bytecode": "0x608060405234801561001057600080fd5b50306000806101000a81548173ffffffffffffffffffffffffffffffffffffffff021916908373ffffffffffffffffffffffffffffffffffffffff160217905550612cd3806100606000396000f3fe60806040523480156200001157600080fd5b5060043610620000c45760003560e01c8063888b34b8116200007b578063888b34b814620001e9578063966dae0e14620002095780639f2aa29b146200022b578063ada2d223146200024d578063c3b927681462000283578063f87d7aad14620002a557620000c4565b80630d1657e814620000c957806346377e2614620001025780634cb1f8ae146200013857806358c1994614620001585780637e385f1e146200018e57806384b504c814620001b0575b600080fd5b620000e76004803603810190620000e1919062000c0e565b620002c7565b604051620000f9949392919062000cb4565b60405180910390f35b6200012060048036038101906200011a919062000c0e565b62000355565b6040516200012f919062000d6c565b60405180910390f35b62000156600480360381019062000150919062000eeb565b62000395565b005b6200017660048036038101906200017091906200100a565b6200058e565b60405162000185919062001059565b60405180910390f35b62000198620005ae565b604051620001a7919062001076565b60405180910390f35b620001ce6004803603810190620001c891906200100a565b620005b4565b604051620001e0949392919062000cb4565b60405180910390f35b620002076004803603810190620002019190620010c4565b62000631565b005b62000213620008f9565b60405162000222919062001120565b60405180910390f35b620002356200091d565b6040516200024491906200120b565b60405180910390f35b6200026b600480360381019062000265919062000c0e565b620009ad565b6040516200027a919062001120565b60405180910390f35b6200028d620009ed565b6040516200029c9190620012ec565b60405180910390f35b620002af62000a7d565b604051620002be91906200144c565b60405180910390f35b60038181548110620002d857600080fd5b90600052602060002090600302016000915090508060000160009054906101000a900473ffffffffffffffffffffffffffffffffffffffff16908060010160009054906101000a900473ffffffffffffffffffffffffffffffffffffffff16908060010160149054906101000a900460000b908060020154905084565b600281815481106200036657600080fd5b906000526020600020016000915054906101000a900473ffffffffffffffffffffffffffffffffffffffff1681565b6000848484843360008054906101000a900473ffffffffffffffffffffffffffffffffffffffff16604051620003cb9062000bb1565b620003dc9695949392919062001503565b604051809103906000f080158015620003f9573d6000803e3d6000fd5b5090506002819080600181540180825580915050600190039060005260206000200160009091909190916101000a81548173ffffffffffffffffffffffffffffffffffffffff021916908373ffffffffffffffffffffffffffffffffffffffff160217905550600660008154809291906200047490620015bb565b9190505550600560003373ffffffffffffffffffffffffffffffffffffffff1673ffffffffffffffffffffffffffffffffffffffff16815260200190815260200160002060009054906101000a900460ff1662000587576001600560003373ffffffffffffffffffffffffffffffffffffffff1673ffffffffffffffffffffffffffffffffffffffff16815260200190815260200160002060006101000a81548160ff0219169083151502179055506001339080600181540180825580915050600190039060005260206000200160009091909190916101000a81548173ffffffffffffffffffffffffffffffffffffffff021916908373ffffffffffffffffffffffffffffffffffffffff1602179055505b5050505050565b60056020528060005260406000206000915054906101000a900460ff1681565b60065481565b60046020528060005260406000206000915090508060000160009054906101000a900473ffffffffffffffffffffffffffffffffffffffff16908060010160009054906101000a900473ffffffffffffffffffffffffffffffffffffffff16908060010160149054906101000a900460000b908060020154905084565b60405180608001604052808473ffffffffffffffffffffffffffffffffffffffff1681526020018373ffffffffffffffffffffffffffffffffffffffff1681526020018260000b815260200142815250600460008573ffffffffffffffffffffffffffffffffffffffff1673ffffffffffffffffffffffffffffffffffffffff16815260200190815260200160002060008201518160000160006101000a81548173ffffffffffffffffffffffffffffffffffffffff021916908373ffffffffffffffffffffffffffffffffffffffff16021790555060208201518160010160006101000a81548173ffffffffffffffffffffffffffffffffffffffff021916908373ffffffffffffffffffffffffffffffffffffffff16021790555060408201518160010160146101000a81548160ff021916908360000b60ff160217905550606082015181600201559050506003600460008573ffffffffffffffffffffffffffffffffffffffff1673ffffffffffffffffffffffffffffffffffffffff16815260200190815260200160002090806001815401808255809150506001900390600052602060002090600302016000909190919091506000820160009054906101000a900473ffffffffffffffffffffffffffffffffffffffff168160000160006101000a81548173ffffffffffffffffffffffffffffffffffffffff021916908373ffffffffffffffffffffffffffffffffffffffff1602179055506001820160009054906101000a900473ffffffffffffffffffffffffffffffffffffffff168160010160006101000a81548173ffffffffffffffffffffffffffffffffffffffff021916908373ffffffffffffffffffffffffffffffffffffffff1602179055506001820160149054906101000a900460000b8160010160146101000a81548160ff021916908360000b60ff160217905550600282015481600201555050505050565b60008054906101000a900473ffffffffffffffffffffffffffffffffffffffff1681565b60606002805480602002602001604051908101604052809291908181526020018280548015620009a357602002820191906000526020600020905b8160009054906101000a900473ffffffffffffffffffffffffffffffffffffffff1673ffffffffffffffffffffffffffffffffffffffff168152602001906001019080831162000958575b5050505050905090565b60018181548110620009be57600080fd5b906000526020600020016000915054906101000a900473ffffffffffffffffffffffffffffffffffffffff1681565b6060600180548060200260200160405190810160405280929190818152602001828054801562000a7357602002820191906000526020600020905b8160009054906101000a900473ffffffffffffffffffffffffffffffffffffffff1673ffffffffffffffffffffffffffffffffffffffff168152602001906001019080831162000a28575b5050505050905090565b60606003805480602002602001604051908101604052809291908181526020016000905b8282101562000ba857838290600052602060002090600302016040518060800160405290816000820160009054906101000a900473ffffffffffffffffffffffffffffffffffffffff1673ffffffffffffffffffffffffffffffffffffffff1673ffffffffffffffffffffffffffffffffffffffff1681526020016001820160009054906101000a900473ffffffffffffffffffffffffffffffffffffffff1673ffffffffffffffffffffffffffffffffffffffff1673ffffffffffffffffffffffffffffffffffffffff1681526020016001820160149054906101000a900460000b60000b60000b81526020016002820154815250508152602001906001019062000aa1565b50505050905090565b611694806200160a83390190565b6000604051905090565b600080fd5b600080fd5b6000819050919050565b62000be88162000bd3565b811462000bf457600080fd5b50565b60008135905062000c088162000bdd565b92915050565b60006020828403121562000c275762000c2662000bc9565b5b600062000c378482850162000bf7565b91505092915050565b600073ffffffffffffffffffffffffffffffffffffffff82169050919050565b600062000c6d8262000c40565b9050919050565b62000c7f8162000c60565b82525050565b60008160000b9050919050565b62000c9d8162000c85565b82525050565b62000cae8162000bd3565b82525050565b600060808201905062000ccb600083018762000c74565b62000cda602083018662000c74565b62000ce9604083018562000c92565b62000cf8606083018462000ca3565b95945050505050565b6000819050919050565b600062000d2c62000d2662000d208462000c40565b62000d01565b62000c40565b9050919050565b600062000d408262000d0b565b9050919050565b600062000d548262000d33565b9050919050565b62000d668162000d47565b82525050565b600060208201905062000d83600083018462000d5b565b92915050565b600080fd5b600080fd5b6000601f19601f8301169050919050565b7f4e487b7100000000000000000000000000000000000000000000000000000000600052604160045260246000fd5b62000dde8262000d93565b810181811067ffffffffffffffff8211171562000e005762000dff62000da4565b5b80604052505050565b600062000e1562000bbf565b905062000e23828262000dd3565b919050565b600067ffffffffffffffff82111562000e465762000e4562000da4565b5b62000e518262000d93565b9050602081019050919050565b82818337600083830152505050565b600062000e8462000e7e8462000e28565b62000e09565b90508281526020810184848401111562000ea35762000ea262000d8e565b5b62000eb084828562000e5e565b509392505050565b600082601f83011262000ed05762000ecf62000d89565b5b813562000ee284826020860162000e6d565b91505092915050565b6000806000806080858703121562000f085762000f0762000bc9565b5b600085013567ffffffffffffffff81111562000f295762000f2862000bce565b5b62000f378782880162000eb8565b945050602085013567ffffffffffffffff81111562000f5b5762000f5a62000bce565b5b62000f698782880162000eb8565b935050604085013567ffffffffffffffff81111562000f8d5762000f8c62000bce565b5b62000f9b8782880162000eb8565b925050606085013567ffffffffffffffff81111562000fbf5762000fbe62000bce565b5b62000fcd8782880162000eb8565b91505092959194509250565b62000fe48162000c60565b811462000ff057600080fd5b50565b600081359050620010048162000fd9565b92915050565b60006020828403121562001023576200102262000bc9565b5b6000620010338482850162000ff3565b91505092915050565b60008115159050919050565b62001053816200103c565b82525050565b600060208201905062001070600083018462001048565b92915050565b60006020820190506200108d600083018462000ca3565b92915050565b6200109e8162000c85565b8114620010aa57600080fd5b50565b600081359050620010be8162001093565b92915050565b600080600060608486031215620010e057620010df62000bc9565b5b6000620010f08682870162000ff3565b9350506020620011038682870162000ff3565b92505060406200111686828701620010ad565b9150509250925092565b600060208201905062001137600083018462000c74565b92915050565b600081519050919050565b600082825260208201905092915050565b6000819050602082019050919050565b620011748162000d47565b82525050565b600062001188838362001169565b60208301905092915050565b6000602082019050919050565b6000620011ae826200113d565b620011ba818562001148565b9350620011c78362001159565b8060005b83811015620011fe578151620011e288826200117a565b9750620011ef8362001194565b925050600181019050620011cb565b5085935050505092915050565b60006020820190508181036000830152620012278184620011a1565b905092915050565b600081519050919050565b6000819050602082019050919050565b620012558162000c60565b82525050565b60006200126983836200124a565b60208301905092915050565b6000602082019050919050565b60006200128f826200122f565b6200129b818562001148565b9350620012a8836200123a565b8060005b83811015620012df578151620012c388826200125b565b9750620012d08362001275565b925050600181019050620012ac565b5085935050505092915050565b6000602082019050818103600083015262001308818462001282565b905092915050565b600081519050919050565b600082825260208201905092915050565b6000819050602082019050919050565b620013478162000c85565b82525050565b620013588162000bd3565b82525050565b6080820160008201516200137660008501826200124a565b5060208201516200138b60208501826200124a565b506040820151620013a060408501826200133c565b506060820151620013b560608501826200134d565b50505050565b6000620013c983836200135e565b60808301905092915050565b6000602082019050919050565b6000620013ef8262001310565b620013fb81856200131b565b935062001408836200132c565b8060005b838110156200143f578151620014238882620013bb565b97506200143083620013d5565b9250506001810190506200140c565b5085935050505092915050565b60006020820190508181036000830152620014688184620013e2565b905092915050565b600081519050919050565b600082825260208201905092915050565b60005b83811015620014ac5780820151818401526020810190506200148f565b83811115620014bc576000848401525b50505050565b6000620014cf8262001470565b620014db81856200147b565b9350620014ed8185602086016200148c565b620014f88162000d93565b840191505092915050565b600060c08201905081810360008301526200151f8189620014c2565b90508181036020830152620015358188620014c2565b905081810360408301526200154b8187620014c2565b90508181036060830152620015618186620014c2565b905062001572608083018562000c74565b6200158160a083018462000c74565b979650505050505050565b7f4e487b7100000000000000000000000000000000000000000000000000000000600052601160045260246000fd5b6000620015c88262000bd3565b91507fffffffffffffffffffffffffffffffffffffffffffffffffffffffffffffffff821415620015fe57620015fd6200158c565b5b60018201905091905056fe60806040523480156200001157600080fd5b5060405162001694380380620016948339818101604052810190620000379190620004fa565b30600160006101000a81548173ffffffffffffffffffffffffffffffffffffffff021916908373ffffffffffffffffffffffffffffffffffffffff16021790555081600260006101000a81548173ffffffffffffffffffffffffffffffffffffffff021916908373ffffffffffffffffffffffffffffffffffffffff1602179055508560039080519060200190620000d192919062000248565b508460049080519060200190620000ea92919062000248565b5083600690805190602001906200010392919062000248565b5082600790805190602001906200011c92919062000248565b5042600581905550806000806101000a81548173ffffffffffffffffffffffffffffffffffffffff021916908373ffffffffffffffffffffffffffffffffffffffff16021790555060008054906101000a900473ffffffffffffffffffffffffffffffffffffffff1673ffffffffffffffffffffffffffffffffffffffff1663888b34b8600260009054906101000a900473ffffffffffffffffffffffffffffffffffffffff16600160009054906101000a900473ffffffffffffffffffffffffffffffffffffffff1660006040518463ffffffff1660e01b815260040162000208939291906200067d565b600060405180830381600087803b1580156200022357600080fd5b505af115801562000238573d6000803e3d6000fd5b505050505050505050506200071f565b8280546200025690620006e9565b90600052602060002090601f0160209004810192826200027a5760008555620002c6565b82601f106200029557805160ff1916838001178555620002c6565b82800160010185558215620002c6579182015b82811115620002c5578251825591602001919060010190620002a8565b5b509050620002d59190620002d9565b5090565b5b80821115620002f4576000816000905550600101620002da565b5090565b6000604051905090565b600080fd5b600080fd5b600080fd5b600080fd5b6000601f19601f8301169050919050565b7f4e487b7100000000000000000000000000000000000000000000000000000000600052604160045260246000fd5b620003618262000316565b810181811067ffffffffffffffff8211171562000383576200038262000327565b5b80604052505050565b600062000398620002f8565b9050620003a6828262000356565b919050565b600067ffffffffffffffff821115620003c957620003c862000327565b5b620003d48262000316565b9050602081019050919050565b60005b8381101562000401578082015181840152602081019050620003e4565b8381111562000411576000848401525b50505050565b60006200042e6200042884620003ab565b6200038c565b9050828152602081018484840111156200044d576200044c62000311565b5b6200045a848285620003e1565b509392505050565b600082601f8301126200047a57620004796200030c565b5b81516200048c84826020860162000417565b91505092915050565b600073ffffffffffffffffffffffffffffffffffffffff82169050919050565b6000620004c28262000495565b9050919050565b620004d481620004b5565b8114620004e057600080fd5b50565b600081519050620004f481620004c9565b92915050565b60008060008060008060c087890312156200051a576200051962000302565b5b600087015167ffffffffffffffff8111156200053b576200053a62000307565b5b6200054989828a0162000462565b965050602087015167ffffffffffffffff8111156200056d576200056c62000307565b5b6200057b89828a0162000462565b955050604087015167ffffffffffffffff8111156200059f576200059e62000307565b5b620005ad89828a0162000462565b945050606087015167ffffffffffffffff811115620005d157620005d062000307565b5b620005df89828a0162000462565b9350506080620005f289828a01620004e3565b92505060a06200060589828a01620004e3565b9150509295509295509295565b6200061d81620004b5565b82525050565b6000819050919050565b60008160000b9050919050565b6000819050919050565b6000620006656200065f620006598462000623565b6200063a565b6200062d565b9050919050565b620006778162000644565b82525050565b600060608201905062000694600083018662000612565b620006a3602083018562000612565b620006b260408301846200066c565b949350505050565b7f4e487b7100000000000000000000000000000000000000000000000000000000600052602260045260246000fd5b600060028204905060018216806200070257607f821691505b60208210811415620007195762000718620006ba565b5b50919050565b610f65806200072f6000396000f3fe608060405234801561001057600080fd5b50600436106100935760003560e01c8063966dae0e11610066578063966dae0e14610116578063d46f6b0314610134578063d8e75f6214610152578063f47890e214610183578063f53352b2146101a157610093565b806302d05d3f146100985780635ad7ef33146100b657806372b6e6fa146100dc578063907a31021461010c575b600080fd5b6100a06101d2565b6040516100ad9190610a59565b60405180910390f35b6100be6101f8565b6040516100d399989796959493929190610c22565b60405180910390f35b6100f660048036038101906100f19190610d03565b610563565b6040516101039190610d30565b60405180910390f35b61011461057b565b005b61011e610930565b60405161012b9190610a59565b60405180910390f35b61013c610954565b6040516101499190610a59565b60405180910390f35b61016c60048036038101906101679190610d77565b61097a565b60405161017a929190610da4565b60405180910390f35b61018b6109ce565b6040516101989190610d30565b60405180910390f35b6101bb60048036038101906101b69190610d03565b6109d4565b6040516101c9929190610da4565b60405180910390f35b600260009054906101000a900473ffffffffffffffffffffffffffffffffffffffff1681565b600080606080600060608060006060600160009054906101000a900473ffffffffffffffffffffffffffffffffffffffff16600260009054906101000a900473ffffffffffffffffffffffffffffffffffffffff166003600460055460066007600a54600b86805461026990610dfc565b80601f016020809104026020016040519081016040528092919081815260200182805461029590610dfc565b80156102e25780601f106102b7576101008083540402835291602001916102e2565b820191906000526020600020905b8154815290600101906020018083116102c557829003601f168201915b505050505096508580546102f590610dfc565b80601f016020809104026020016040519081016040528092919081815260200182805461032190610dfc565b801561036e5780601f106103435761010080835404028352916020019161036e565b820191906000526020600020905b81548152906001019060200180831161035157829003601f168201915b5050505050955083805461038190610dfc565b80601f01602080910402602001604051908101604052809291908181526020018280546103ad90610dfc565b80156103fa5780601f106103cf576101008083540402835291602001916103fa565b820191906000526020600020905b8154815290600101906020018083116103dd57829003601f168201915b5050505050935082805461040d90610dfc565b80601f016020809104026020016040519081016040528092919081815260200182805461043990610dfc565b80156104865780601f1061045b57610100808354040283529160200191610486565b820191906000526020600020905b81548152906001019060200180831161046957829003601f168201915b5050505050925080805480602002602001604051908101604052809291908181526020016000905b8282101561054057838290600052602060002090600202016040518060400160405290816000820160009054906101000a900473ffffffffffffffffffffffffffffffffffffffff1673ffffffffffffffffffffffffffffffffffffffff1673ffffffffffffffffffffffffffffffffffffffff168152602001600182015481525050815260200190600101906104ae565b505050509050985098509850985098509850985098509850909192939495969798565b60096020528060005260406000206000915090505481565b600860003373ffffffffffffffffffffffffffffffffffffffff1673ffffffffffffffffffffffffffffffffffffffff16815260200190815260200160002060009054906101000a900460ff16156105d257600080fd5b3373ffffffffffffffffffffffffffffffffffffffff16600260009054906101000a900473ffffffffffffffffffffffffffffffffffffffff1673ffffffffffffffffffffffffffffffffffffffff16141561062d57600080fd5b60405180604001604052803373ffffffffffffffffffffffffffffffffffffffff16815260200142815250600c60003373ffffffffffffffffffffffffffffffffffffffff1673ffffffffffffffffffffffffffffffffffffffff16815260200190815260200160002060008201518160000160006101000a81548173ffffffffffffffffffffffffffffffffffffffff021916908373ffffffffffffffffffffffffffffffffffffffff16021790555060208201518160010155905050600b600c60003373ffffffffffffffffffffffffffffffffffffffff1673ffffffffffffffffffffffffffffffffffffffff16815260200190815260200160002090806001815401808255809150506001900390600052602060002090600202016000909190919091506000820160009054906101000a900473ffffffffffffffffffffffffffffffffffffffff168160000160006101000a81548173ffffffffffffffffffffffffffffffffffffffff021916908373ffffffffffffffffffffffffffffffffffffffff1602179055506001820154816001015550506001600860003373ffffffffffffffffffffffffffffffffffffffff1673ffffffffffffffffffffffffffffffffffffffff16815260200190815260200160002060006101000a81548160ff021916908315150217905550600a600081548092919061083390610e5d565b919050555042600960003373ffffffffffffffffffffffffffffffffffffffff1673ffffffffffffffffffffffffffffffffffffffff1681526020019081526020016000208190555060008054906101000a900473ffffffffffffffffffffffffffffffffffffffff1673ffffffffffffffffffffffffffffffffffffffff1663888b34b833600160009054906101000a900473ffffffffffffffffffffffffffffffffffffffff1660016040518463ffffffff1660e01b81526004016108fc93929190610ef8565b600060405180830381600087803b15801561091657600080fd5b505af115801561092a573d6000803e3d6000fd5b50505050565b60008054906101000a900473ffffffffffffffffffffffffffffffffffffffff1681565b600160009054906101000a900473ffffffffffffffffffffffffffffffffffffffff1681565b600b818154811061098a57600080fd5b90600052602060002090600202016000915090508060000160009054906101000a900473ffffffffffffffffffffffffffffffffffffffff16908060010154905082565b600a5481565b600c6020528060005260406000206000915090508060000160009054906101000a900473ffffffffffffffffffffffffffffffffffffffff16908060010154905082565b600073ffffffffffffffffffffffffffffffffffffffff82169050919050565b6000610a4382610a18565b9050919050565b610a5381610a38565b82525050565b6000602082019050610a6e6000830184610a4a565b92915050565b600081519050919050565b600082825260208201905092915050565b60005b83811015610aae578082015181840152602081019050610a93565b83811115610abd576000848401525b50505050565b6000601f19601f8301169050919050565b6000610adf82610a74565b610ae98185610a7f565b9350610af9818560208601610a90565b610b0281610ac3565b840191505092915050565b6000819050919050565b610b2081610b0d565b82525050565b600081519050919050565b600082825260208201905092915050565b6000819050602082019050919050565b610b5b81610a38565b82525050565b610b6a81610b0d565b82525050565b604082016000820151610b866000850182610b52565b506020820151610b996020850182610b61565b50505050565b6000610bab8383610b70565b60408301905092915050565b6000602082019050919050565b6000610bcf82610b26565b610bd98185610b31565b9350610be483610b42565b8060005b83811015610c15578151610bfc8882610b9f565b9750610c0783610bb7565b925050600181019050610be8565b5085935050505092915050565b600061012082019050610c38600083018c610a4a565b610c45602083018b610a4a565b8181036040830152610c57818a610ad4565b90508181036060830152610c6b8189610ad4565b9050610c7a6080830188610b17565b81810360a0830152610c8c8187610ad4565b905081810360c0830152610ca08186610ad4565b9050610caf60e0830185610b17565b818103610100830152610cc28184610bc4565b90509a9950505050505050505050565b600080fd5b610ce081610a38565b8114610ceb57600080fd5b50565b600081359050610cfd81610cd7565b92915050565b600060208284031215610d1957610d18610cd2565b5b6000610d2784828501610cee565b91505092915050565b6000602082019050610d456000830184610b17565b92915050565b610d5481610b0d565b8114610d5f57600080fd5b50565b600081359050610d7181610d4b565b92915050565b600060208284031215610d8d57610d8c610cd2565b5b6000610d9b84828501610d62565b91505092915050565b6000604082019050610db96000830185610a4a565b610dc66020830184610b17565b9392505050565b7f4e487b7100000000000000000000000000000000000000000000000000000000600052602260045260246000fd5b60006002820490506001821680610e1457607f821691505b60208210811415610e2857610e27610dcd565b5b50919050565b7f4e487b7100000000000000000000000000000000000000000000000000000000600052601160045260246000fd5b6000610e6882610b0d565b91507fffffffffffffffffffffffffffffffffffffffffffffffffffffffffffffffff821415610e9b57610e9a610e2e565b5b600182019050919050565b6000819050919050565b60008160000b9050919050565b6000819050919050565b6000610ee2610edd610ed884610ea6565b610ebd565b610eb0565b9050919050565b610ef281610ec7565b82525050565b6000606082019050610f0d6000830186610a4a565b610f1a6020830185610a4a565b610f276040830184610ee9565b94935050505056fea264697066735822122009af7abd5e323958e6265908d9f81a9f0c688b9c62a234cfba41409d6276aa0064736f6c634300080a0033a26469706673582212205ceb6f17c8dfeb5747d22c6ace777b2c4e7dbc67898f990972452733491b351b64736f6c634300080a0033",
  "immutableReferences": {},
  "source": "// SPDX-License-Identifier: GPL-3.0\r\n\r\npragma solidity >=0.7.0 <0.9.0;\r\n\r\ncontract TreasureFactory {\r\n    address public factoryAddress;\r\n    address[] public hiders;\r\n    Treasure[] public treasureContracts;\r\n    UserActivity[] public activities;\r\n    mapping(address => UserActivity) public activity;\r\n    mapping(address => bool) public isHider;\r\n    uint public treasureContractsCount;\r\n\r\n    struct UserActivity {\r\n        address user;\r\n        address contractAddress;\r\n        int8 side;\r\n        uint timestamp;\r\n    }\r\n\r\n    constructor() {\r\n        factoryAddress = address(this);\r\n    }\r\n\r\n    function createTreasure(string memory _title, string memory _hint, string memory _latitude, string memory _longitude) public {\r\n        Treasure treasure = new Treasure(_title, _hint, _latitude, _longitude, msg.sender, factoryAddress);\r\n        treasureContracts.push(treasure);\r\n        treasureContractsCount++;\r\n\r\n        if (!isHider[msg.sender]) {\r\n            isHider[msg.sender] = true;\r\n            hiders.push(msg.sender);\r\n        }\r\n    }\r\n    \r\n    function getAllHiders() public view returns (address[] memory) {\r\n        return hiders;\r\n    }\r\n\r\n    function getTreasureContracts() public view returns (Treasure[] memory) {\r\n        return treasureContracts;\r\n    }\r\n\r\n    function getUsersActivity() public view returns (UserActivity[] memory) {\r\n        return activities;\r\n    }\r\n\r\n    function addActivity(address _creator, address _treasureAddress, int8 _side) external {\r\n        activity[_creator] = UserActivity(_creator, _treasureAddress, _side, block.timestamp);\r\n        activities.push(activity[_creator]);\r\n    }\r\n}\r\n\r\ncontract Treasure {\r\n    address public factoryAddress;\r\n    address public treasureAddress;\r\n    address public creator;\r\n    string title;\r\n    string hint;\r\n    uint currentTimestamp;\r\n    string latitude;\r\n    string longitude;\r\n    mapping(address => bool) located;\r\n    mapping(address => uint) public whenLocated;\r\n    uint public locatedCount;\r\n    FounderActivity[] public founders;\r\n    mapping(address => FounderActivity) public founder;\r\n\r\n    struct FounderActivity {\r\n        address user;\r\n        uint timestamp;\r\n    }\r\n\r\n    constructor(string memory _title, string memory _hint, string memory _latitude, string memory _longitude, address _creator, address _factoryAddress) {\r\n        treasureAddress = address(this);\r\n        creator = _creator;\r\n        title = _title;\r\n        hint = _hint;\r\n        latitude = _latitude;\r\n        longitude = _longitude;\r\n        currentTimestamp = block.timestamp;\r\n        factoryAddress = _factoryAddress;\r\n\r\n        TreasureFactory(factoryAddress).addActivity(creator, treasureAddress, 0);\r\n    }\r\n\r\n    function locateTreasure() public {\r\n        require(!located[msg.sender]);\r\n        require(creator != msg.sender);\r\n\r\n        founder[msg.sender] = FounderActivity(msg.sender, block.timestamp);\r\n        founders.push(founder[msg.sender]);\r\n        located[msg.sender] = true;\r\n        locatedCount++;\r\n        whenLocated[msg.sender] = block.timestamp;\r\n        TreasureFactory(factoryAddress).addActivity(msg.sender, treasureAddress, 1);\r\n    }\r\n\r\n    function getTreasureSummary() public view returns (address, address, string memory, string memory, uint, string memory, string memory, uint, FounderActivity[] memory) {\r\n        return (\r\n            treasureAddress,\r\n            creator,\r\n            title,\r\n            hint,\r\n            currentTimestamp,\r\n            latitude,\r\n            longitude,\r\n            locatedCount,\r\n            founders\r\n        );\r\n    }\r\n}",
  "sourcePath": "E:\\OneDrive\\04 - Projects\\07 - Blockchain\\treasure-hunt-outdoors\\contracts\\Treasure-Hunt-Outdoors.sol",
  "compiler": {
    "name": "solc",
    "version": "0.8.10+commit.fc410830.Emscripten.clang"
  },
  "schemaVersion": "3.4.3",
  "updatedAt": "2022-08-29T05:29:53.110Z",
  "networkType": "ethereum",
  "devdoc": {
    "kind": "dev",
    "methods": {},
    "version": 1
  },
  "userdoc": {
    "kind": "user",
    "methods": {},
    "version": 1
  }
}