{
  "contractName": "TreasureFactory",
  "abi": [
    {
      "inputs": [],
      "stateMutability": "nonpayable",
      "type": "constructor"
    },
    {
      "inputs": [
        {
          "internalType": "uint256",
          "name": "",
          "type": "uint256"
        }
      ],
      "name": "activities",
      "outputs": [
        {
          "internalType": "address",
          "name": "user",
          "type": "address"
        },
        {
          "internalType": "address",
          "name": "contractAddress",
          "type": "address"
        },
        {
          "internalType": "int8",
          "name": "side",
          "type": "int8"
        },
        {
          "internalType": "uint256",
          "name": "timestamp",
          "type": "uint256"
        }
      ],
      "stateMutability": "view",
      "type": "function",
      "constant": true
    },
    {
      "inputs": [
        {
          "internalType": "address",
          "name": "",
          "type": "address"
        }
      ],
      "name": "activity",
      "outputs": [
        {
          "internalType": "address",
          "name": "user",
          "type": "address"
        },
        {
          "internalType": "address",
          "name": "contractAddress",
          "type": "address"
        },
        {
          "internalType": "int8",
          "name": "side",
          "type": "int8"
        },
        {
          "internalType": "uint256",
          "name": "timestamp",
          "type": "uint256"
        }
      ],
      "stateMutability": "view",
      "type": "function",
      "constant": true
    },
    {
      "inputs": [],
      "name": "factoryAddress",
      "outputs": [
        {
          "internalType": "address",
          "name": "",
          "type": "address"
        }
      ],
      "stateMutability": "view",
      "type": "function",
      "constant": true
    },
    {
      "inputs": [
        {
          "internalType": "uint256",
          "name": "",
          "type": "uint256"
        }
      ],
      "name": "hiders",
      "outputs": [
        {
          "internalType": "address",
          "name": "",
          "type": "address"
        }
      ],
      "stateMutability": "view",
      "type": "function",
      "constant": true
    },
    {
      "inputs": [
        {
          "internalType": "address",
          "name": "",
          "type": "address"
        }
      ],
      "name": "isHider",
      "outputs": [
        {
          "internalType": "bool",
          "name": "",
          "type": "bool"
        }
      ],
      "stateMutability": "view",
      "type": "function",
      "constant": true
    },
    {
      "inputs": [
        {
          "internalType": "uint256",
          "name": "",
          "type": "uint256"
        }
      ],
      "name": "treasureContracts",
      "outputs": [
        {
          "internalType": "contract Treasure",
          "name": "",
          "type": "address"
        }
      ],
      "stateMutability": "view",
      "type": "function",
      "constant": true
    },
    {
      "inputs": [],
      "name": "treasureContractsCount",
      "outputs": [
        {
          "internalType": "uint256",
          "name": "",
          "type": "uint256"
        }
      ],
      "stateMutability": "view",
      "type": "function",
      "constant": true
    },
    {
      "inputs": [
        {
          "internalType": "string",
          "name": "_title",
          "type": "string"
        },
        {
          "internalType": "string",
          "name": "_hint",
          "type": "string"
        },
        {
          "internalType": "string",
          "name": "_latitude",
          "type": "string"
        },
        {
          "internalType": "string",
          "name": "_longitude",
          "type": "string"
        }
      ],
      "name": "createTreasure",
      "outputs": [],
      "stateMutability": "nonpayable",
      "type": "function"
    },
    {
      "inputs": [],
      "name": "getAllHiders",
      "outputs": [
        {
          "internalType": "address[]",
          "name": "",
          "type": "address[]"
        }
      ],
      "stateMutability": "view",
      "type": "function",
      "constant": true
    },
    {
      "inputs": [],
      "name": "getTreasureContracts",
      "outputs": [
        {
          "internalType": "contract Treasure[]",
          "name": "",
          "type": "address[]"
        }
      ],
      "stateMutability": "view",
      "type": "function",
      "constant": true
    },
    {
      "inputs": [],
      "name": "getUsersActivity",
      "outputs": [
        {
          "components": [
            {
              "internalType": "address",
              "name": "user",
              "type": "address"
            },
            {
              "internalType": "address",
              "name": "contractAddress",
              "type": "address"
            },
            {
              "internalType": "int8",
              "name": "side",
              "type": "int8"
            },
            {
              "internalType": "uint256",
              "name": "timestamp",
              "type": "uint256"
            }
          ],
          "internalType": "struct TreasureFactory.UserActivity[]",
          "name": "",
          "type": "tuple[]"
        }
      ],
      "stateMutability": "view",
      "type": "function",
      "constant": true
    },
    {
      "inputs": [
        {
          "internalType": "address",
          "name": "_creator",
          "type": "address"
        },
        {
          "internalType": "address",
          "name": "_treasureAddress",
          "type": "address"
        },
        {
          "internalType": "int8",
          "name": "_side",
          "type": "int8"
        }
      ],
      "name": "addActivity",
      "outputs": [],
      "stateMutability": "nonpayable",
      "type": "function"
    },
    {
      "inputs": [
        {
          "internalType": "address",
          "name": "_treasureAddress",
          "type": "address"
        }
      ],
      "name": "removeTreasure",
      "outputs": [],
      "stateMutability": "nonpayable",
      "type": "function"
    }
  ],
  "bytecode": "0x608060405234801561001057600080fd5b50306000806101000a81548173ffffffffffffffffffffffffffffffffffffffff021916908373ffffffffffffffffffffffffffffffffffffffff1602179055506133ff806100606000396000f3fe60806040523480156200001157600080fd5b5060043610620000e25760003560e01c8063888b34b81162000099578063ada2d223116200006f578063ada2d223146200026b578063c3b9276814620002a1578063e4bfadc314620002c3578063f87d7aad14620002e357620000e2565b8063888b34b81462000207578063966dae0e14620002275780639f2aa29b146200024957620000e2565b80630d1657e814620000e757806346377e2614620001205780634cb1f8ae146200015657806358c1994614620001765780637e385f1e14620001ac57806384b504c814620001ce575b600080fd5b620001056004803603810190620000ff919062000edd565b62000305565b60405162000117949392919062000f83565b60405180910390f35b6200013e600480360381019062000138919062000edd565b62000393565b6040516200014d91906200103b565b60405180910390f35b6200017460048036038101906200016e9190620011ba565b620003d3565b005b6200019460048036038101906200018e9190620012d9565b620005cc565b604051620001a3919062001328565b60405180910390f35b620001b6620005ec565b604051620001c5919062001345565b60405180910390f35b620001ec6004803603810190620001e69190620012d9565b620005f2565b604051620001fe949392919062000f83565b60405180910390f35b6200022560048036038101906200021f919062001393565b6200066f565b005b6200023162000937565b604051620002409190620013ef565b60405180910390f35b620002536200095b565b604051620002629190620014da565b60405180910390f35b62000289600480360381019062000283919062000edd565b620009eb565b604051620002989190620013ef565b60405180910390f35b620002ab62000a2b565b604051620002ba9190620015bb565b60405180910390f35b620002e16004803603810190620002db9190620012d9565b62000abb565b005b620002ed62000d4c565b604051620002fc91906200171b565b60405180910390f35b600481815481106200031657600080fd5b90600052602060002090600302016000915090508060000160009054906101000a900473ffffffffffffffffffffffffffffffffffffffff16908060010160009054906101000a900473ffffffffffffffffffffffffffffffffffffffff16908060010160149054906101000a900460000b908060020154905084565b60038181548110620003a457600080fd5b906000526020600020016000915054906101000a900473ffffffffffffffffffffffffffffffffffffffff1681565b6000848484843360008054906101000a900473ffffffffffffffffffffffffffffffffffffffff16604051620004099062000e80565b6200041a96959493929190620017f7565b604051809103906000f08015801562000437573d6000803e3d6000fd5b5090506003819080600181540180825580915050600190039060005260206000200160009091909190916101000a81548173ffffffffffffffffffffffffffffffffffffffff021916908373ffffffffffffffffffffffffffffffffffffffff16021790555060026000815480929190620004b290620018af565b9190505550600660003373ffffffffffffffffffffffffffffffffffffffff1673ffffffffffffffffffffffffffffffffffffffff16815260200190815260200160002060009054906101000a900460ff16620005c5576001600660003373ffffffffffffffffffffffffffffffffffffffff1673ffffffffffffffffffffffffffffffffffffffff16815260200190815260200160002060006101000a81548160ff0219169083151502179055506001339080600181540180825580915050600190039060005260206000200160009091909190916101000a81548173ffffffffffffffffffffffffffffffffffffffff021916908373ffffffffffffffffffffffffffffffffffffffff1602179055505b5050505050565b60066020528060005260406000206000915054906101000a900460ff1681565b60025481565b60056020528060005260406000206000915090508060000160009054906101000a900473ffffffffffffffffffffffffffffffffffffffff16908060010160009054906101000a900473ffffffffffffffffffffffffffffffffffffffff16908060010160149054906101000a900460000b908060020154905084565b60405180608001604052808473ffffffffffffffffffffffffffffffffffffffff1681526020018373ffffffffffffffffffffffffffffffffffffffff1681526020018260000b815260200142815250600560008573ffffffffffffffffffffffffffffffffffffffff1673ffffffffffffffffffffffffffffffffffffffff16815260200190815260200160002060008201518160000160006101000a81548173ffffffffffffffffffffffffffffffffffffffff021916908373ffffffffffffffffffffffffffffffffffffffff16021790555060208201518160010160006101000a81548173ffffffffffffffffffffffffffffffffffffffff021916908373ffffffffffffffffffffffffffffffffffffffff16021790555060408201518160010160146101000a81548160ff021916908360000b60ff160217905550606082015181600201559050506004600560008573ffffffffffffffffffffffffffffffffffffffff1673ffffffffffffffffffffffffffffffffffffffff16815260200190815260200160002090806001815401808255809150506001900390600052602060002090600302016000909190919091506000820160009054906101000a900473ffffffffffffffffffffffffffffffffffffffff168160000160006101000a81548173ffffffffffffffffffffffffffffffffffffffff021916908373ffffffffffffffffffffffffffffffffffffffff1602179055506001820160009054906101000a900473ffffffffffffffffffffffffffffffffffffffff168160010160006101000a81548173ffffffffffffffffffffffffffffffffffffffff021916908373ffffffffffffffffffffffffffffffffffffffff1602179055506001820160149054906101000a900460000b8160010160146101000a81548160ff021916908360000b60ff160217905550600282015481600201555050505050565b60008054906101000a900473ffffffffffffffffffffffffffffffffffffffff1681565b60606003805480602002602001604051908101604052809291908181526020018280548015620009e157602002820191906000526020600020905b8160009054906101000a900473ffffffffffffffffffffffffffffffffffffffff1673ffffffffffffffffffffffffffffffffffffffff168152602001906001019080831162000996575b5050505050905090565b60018181548110620009fc57600080fd5b906000526020600020016000915054906101000a900473ffffffffffffffffffffffffffffffffffffffff1681565b6060600180548060200260200160405190810160405280929190818152602001828054801562000ab157602002820191906000526020600020905b8160009054906101000a900473ffffffffffffffffffffffffffffffffffffffff1673ffffffffffffffffffffffffffffffffffffffff168152602001906001019080831162000a66575b5050505050905090565b3373ffffffffffffffffffffffffffffffffffffffff168173ffffffffffffffffffffffffffffffffffffffff1663d46f6b036040518163ffffffff1660e01b8152600401602060405180830381865afa15801562000b1e573d6000803e3d6000fd5b505050506040513d601f19601f8201168201806040525081019062000b44919062001914565b73ffffffffffffffffffffffffffffffffffffffff161462000b9d576040517f08c379a000000000000000000000000000000000000000000000000000000000815260040162000b949062001996565b60405180910390fd5b60006003905060005b6001828054905062000bb99190620019b8565b81101562000d47578273ffffffffffffffffffffffffffffffffffffffff1682828154811062000bee5762000bed620019f3565b5b9060005260206000200160009054906101000a900473ffffffffffffffffffffffffffffffffffffffff1673ffffffffffffffffffffffffffffffffffffffff16141562000d3157816001838054905062000c4a9190620019b8565b8154811062000c5e5762000c5d620019f3565b5b9060005260206000200160009054906101000a900473ffffffffffffffffffffffffffffffffffffffff1682828154811062000c9f5762000c9e620019f3565b5b9060005260206000200160006101000a81548173ffffffffffffffffffffffffffffffffffffffff021916908373ffffffffffffffffffffffffffffffffffffffff1602179055508180548062000cfb5762000cfa62001a22565b5b6001900381819060005260206000200160006101000a81549073ffffffffffffffffffffffffffffffffffffffff021916905590555b808062000d3e90620018af565b91505062000ba6565b505050565b60606004805480602002602001604051908101604052809291908181526020016000905b8282101562000e7757838290600052602060002090600302016040518060800160405290816000820160009054906101000a900473ffffffffffffffffffffffffffffffffffffffff1673ffffffffffffffffffffffffffffffffffffffff1673ffffffffffffffffffffffffffffffffffffffff1681526020016001820160009054906101000a900473ffffffffffffffffffffffffffffffffffffffff1673ffffffffffffffffffffffffffffffffffffffff1673ffffffffffffffffffffffffffffffffffffffff1681526020016001820160149054906101000a900460000b60000b60000b81526020016002820154815250508152602001906001019062000d70565b50505050905090565b6119788062001a5283390190565b6000604051905090565b600080fd5b600080fd5b6000819050919050565b62000eb78162000ea2565b811462000ec357600080fd5b50565b60008135905062000ed78162000eac565b92915050565b60006020828403121562000ef65762000ef562000e98565b5b600062000f068482850162000ec6565b91505092915050565b600073ffffffffffffffffffffffffffffffffffffffff82169050919050565b600062000f3c8262000f0f565b9050919050565b62000f4e8162000f2f565b82525050565b60008160000b9050919050565b62000f6c8162000f54565b82525050565b62000f7d8162000ea2565b82525050565b600060808201905062000f9a600083018762000f43565b62000fa9602083018662000f43565b62000fb8604083018562000f61565b62000fc7606083018462000f72565b95945050505050565b6000819050919050565b600062000ffb62000ff562000fef8462000f0f565b62000fd0565b62000f0f565b9050919050565b60006200100f8262000fda565b9050919050565b6000620010238262001002565b9050919050565b620010358162001016565b82525050565b60006020820190506200105260008301846200102a565b92915050565b600080fd5b600080fd5b6000601f19601f8301169050919050565b7f4e487b7100000000000000000000000000000000000000000000000000000000600052604160045260246000fd5b620010ad8262001062565b810181811067ffffffffffffffff82111715620010cf57620010ce62001073565b5b80604052505050565b6000620010e462000e8e565b9050620010f28282620010a2565b919050565b600067ffffffffffffffff82111562001115576200111462001073565b5b620011208262001062565b9050602081019050919050565b82818337600083830152505050565b6000620011536200114d84620010f7565b620010d8565b9050828152602081018484840111156200117257620011716200105d565b5b6200117f8482856200112d565b509392505050565b600082601f8301126200119f576200119e62001058565b5b8135620011b18482602086016200113c565b91505092915050565b60008060008060808587031215620011d757620011d662000e98565b5b600085013567ffffffffffffffff811115620011f857620011f762000e9d565b5b620012068782880162001187565b945050602085013567ffffffffffffffff8111156200122a576200122962000e9d565b5b620012388782880162001187565b935050604085013567ffffffffffffffff8111156200125c576200125b62000e9d565b5b6200126a8782880162001187565b925050606085013567ffffffffffffffff8111156200128e576200128d62000e9d565b5b6200129c8782880162001187565b91505092959194509250565b620012b38162000f2f565b8114620012bf57600080fd5b50565b600081359050620012d381620012a8565b92915050565b600060208284031215620012f257620012f162000e98565b5b60006200130284828501620012c2565b91505092915050565b60008115159050919050565b62001322816200130b565b82525050565b60006020820190506200133f600083018462001317565b92915050565b60006020820190506200135c600083018462000f72565b92915050565b6200136d8162000f54565b81146200137957600080fd5b50565b6000813590506200138d8162001362565b92915050565b600080600060608486031215620013af57620013ae62000e98565b5b6000620013bf86828701620012c2565b9350506020620013d286828701620012c2565b9250506040620013e5868287016200137c565b9150509250925092565b600060208201905062001406600083018462000f43565b92915050565b600081519050919050565b600082825260208201905092915050565b6000819050602082019050919050565b620014438162001016565b82525050565b600062001457838362001438565b60208301905092915050565b6000602082019050919050565b60006200147d826200140c565b62001489818562001417565b9350620014968362001428565b8060005b83811015620014cd578151620014b1888262001449565b9750620014be8362001463565b9250506001810190506200149a565b5085935050505092915050565b60006020820190508181036000830152620014f6818462001470565b905092915050565b600081519050919050565b6000819050602082019050919050565b620015248162000f2f565b82525050565b600062001538838362001519565b60208301905092915050565b6000602082019050919050565b60006200155e82620014fe565b6200156a818562001417565b9350620015778362001509565b8060005b83811015620015ae5781516200159288826200152a565b97506200159f8362001544565b9250506001810190506200157b565b5085935050505092915050565b60006020820190508181036000830152620015d7818462001551565b905092915050565b600081519050919050565b600082825260208201905092915050565b6000819050602082019050919050565b620016168162000f54565b82525050565b620016278162000ea2565b82525050565b60808201600082015162001645600085018262001519565b5060208201516200165a602085018262001519565b5060408201516200166f60408501826200160b565b5060608201516200168460608501826200161c565b50505050565b60006200169883836200162d565b60808301905092915050565b6000602082019050919050565b6000620016be82620015df565b620016ca8185620015ea565b9350620016d783620015fb565b8060005b838110156200170e578151620016f288826200168a565b9750620016ff83620016a4565b925050600181019050620016db565b5085935050505092915050565b60006020820190508181036000830152620017378184620016b1565b905092915050565b600081519050919050565b600082825260208201905092915050565b60005b838110156200177b5780820151818401526020810190506200175e565b838111156200178b576000848401525b50505050565b60006200179e826200173f565b620017aa81856200174a565b9350620017bc8185602086016200175b565b620017c78162001062565b840191505092915050565b6000620017df8262000f0f565b9050919050565b620017f181620017d2565b82525050565b600060c082019050818103600083015262001813818962001791565b9050818103602083015262001829818862001791565b905081810360408301526200183f818762001791565b9050818103606083015262001855818662001791565b9050620018666080830185620017e6565b6200187560a083018462000f43565b979650505050505050565b7f4e487b7100000000000000000000000000000000000000000000000000000000600052601160045260246000fd5b6000620018bc8262000ea2565b91507fffffffffffffffffffffffffffffffffffffffffffffffffffffffffffffffff821415620018f257620018f162001880565b5b600182019050919050565b6000815190506200190e81620012a8565b92915050565b6000602082840312156200192d576200192c62000e98565b5b60006200193d84828501620018fd565b91505092915050565b7f6f6e6c7920747265617375726500000000000000000000000000000000000000600082015250565b60006200197e600d836200174a565b91506200198b8262001946565b602082019050919050565b60006020820190508181036000830152620019b1816200196f565b9050919050565b6000620019c58262000ea2565b9150620019d28362000ea2565b925082821015620019e857620019e762001880565b5b828203905092915050565b7f4e487b7100000000000000000000000000000000000000000000000000000000600052603260045260246000fd5b7f4e487b7100000000000000000000000000000000000000000000000000000000600052603160045260246000fdfe60806040523480156200001157600080fd5b506040516200197838038062001978833981810160405281019062000037919062000542565b30600760006101000a81548173ffffffffffffffffffffffffffffffffffffffff021916908373ffffffffffffffffffffffffffffffffffffffff16021790555081600860006101000a81548173ffffffffffffffffffffffffffffffffffffffff021916908373ffffffffffffffffffffffffffffffffffffffff1602179055508560009080519060200190620000d19291906200024b565b508460019080519060200190620000ea9291906200024b565b508360029080519060200190620001039291906200024b565b5082600390805190602001906200011c9291906200024b565b504260048190555080600660006101000a81548173ffffffffffffffffffffffffffffffffffffffff021916908373ffffffffffffffffffffffffffffffffffffffff160217905550600660009054906101000a900473ffffffffffffffffffffffffffffffffffffffff1673ffffffffffffffffffffffffffffffffffffffff1663888b34b8600860009054906101000a900473ffffffffffffffffffffffffffffffffffffffff16600760009054906101000a900473ffffffffffffffffffffffffffffffffffffffff1660006040518463ffffffff1660e01b81526004016200020b9392919062000726565b600060405180830381600087803b1580156200022657600080fd5b505af11580156200023b573d6000803e3d6000fd5b50505050505050505050620007c8565b828054620002599062000792565b90600052602060002090601f0160209004810192826200027d5760008555620002c9565b82601f106200029857805160ff1916838001178555620002c9565b82800160010185558215620002c9579182015b82811115620002c8578251825591602001919060010190620002ab565b5b509050620002d89190620002dc565b5090565b5b80821115620002f7576000816000905550600101620002dd565b5090565b6000604051905090565b600080fd5b600080fd5b600080fd5b600080fd5b6000601f19601f8301169050919050565b7f4e487b7100000000000000000000000000000000000000000000000000000000600052604160045260246000fd5b620003648262000319565b810181811067ffffffffffffffff821117156200038657620003856200032a565b5b80604052505050565b60006200039b620002fb565b9050620003a9828262000359565b919050565b600067ffffffffffffffff821115620003cc57620003cb6200032a565b5b620003d78262000319565b9050602081019050919050565b60005b8381101562000404578082015181840152602081019050620003e7565b8381111562000414576000848401525b50505050565b6000620004316200042b84620003ae565b6200038f565b90508281526020810184848401111562000450576200044f62000314565b5b6200045d848285620003e4565b509392505050565b600082601f8301126200047d576200047c6200030f565b5b81516200048f8482602086016200041a565b91505092915050565b600073ffffffffffffffffffffffffffffffffffffffff82169050919050565b6000620004c58262000498565b9050919050565b620004d781620004b8565b8114620004e357600080fd5b50565b600081519050620004f781620004cc565b92915050565b60006200050a8262000498565b9050919050565b6200051c81620004fd565b81146200052857600080fd5b50565b6000815190506200053c8162000511565b92915050565b60008060008060008060c0878903121562000562576200056162000305565b5b600087015167ffffffffffffffff8111156200058357620005826200030a565b5b6200059189828a0162000465565b965050602087015167ffffffffffffffff811115620005b557620005b46200030a565b5b620005c389828a0162000465565b955050604087015167ffffffffffffffff811115620005e757620005e66200030a565b5b620005f589828a0162000465565b945050606087015167ffffffffffffffff8111156200061957620006186200030a565b5b6200062789828a0162000465565b93505060806200063a89828a01620004e6565b92505060a06200064d89828a016200052b565b9150509295509295509295565b6000819050919050565b6000620006856200067f620006798462000498565b6200065a565b62000498565b9050919050565b6000620006998262000664565b9050919050565b6000620006ad826200068c565b9050919050565b620006bf81620006a0565b82525050565b620006d081620004fd565b82525050565b6000819050919050565b60008160000b9050919050565b60006200070e620007086200070284620006d6565b6200065a565b620006e0565b9050919050565b6200072081620006ed565b82525050565b60006060820190506200073d6000830186620006b4565b6200074c6020830185620006c5565b6200075b604083018462000715565b949350505050565b7f4e487b7100000000000000000000000000000000000000000000000000000000600052602260045260246000fd5b60006002820490506001821680620007ab57607f821691505b60208210811415620007c257620007c162000763565b5b50919050565b6111a080620007d86000396000f3fe608060405234801561001057600080fd5b506004361061009e5760003560e01c8063966dae0e11610066578063966dae0e14610152578063a7f4377914610170578063c1a15eca1461017a578063d46f6b03146101ab578063f47890e2146101c95761009e565b806302d05d3f146100a35780634e1b1177146100c15780635ad7ef33146100f257806372b6e6fa14610118578063907a310214610148575b600080fd5b6100ab6101e7565b6040516100b89190610bec565b60405180910390f35b6100db60048036038101906100d69190610c42565b61020d565b6040516100e9929190610c9f565b60405180910390f35b6100fa610261565b60405161010f99989796959493929190610e5d565b60405180910390f35b610132600480360381019061012d9190610f39565b6105cc565b60405161013f9190610f66565b60405180910390f35b6101506105e4565b005b61015a61099b565b6040516101679190610f81565b60405180910390f35b6101786109c1565b005b610194600480360381019061018f9190610f39565b610b3b565b6040516101a2929190610c9f565b60405180910390f35b6101b3610b7f565b6040516101c09190610f81565b60405180910390f35b6101d1610ba5565b6040516101de9190610f66565b60405180910390f35b600860009054906101000a900473ffffffffffffffffffffffffffffffffffffffff1681565b6009818154811061021d57600080fd5b90600052602060002090600202016000915090508060000160009054906101000a900473ffffffffffffffffffffffffffffffffffffffff16908060010154905082565b600080606080600060608060006060600760009054906101000a900473ffffffffffffffffffffffffffffffffffffffff16600860009054906101000a900473ffffffffffffffffffffffffffffffffffffffff16600060016004546002600360055460098680546102d290610fcb565b80601f01602080910402602001604051908101604052809291908181526020018280546102fe90610fcb565b801561034b5780601f106103205761010080835404028352916020019161034b565b820191906000526020600020905b81548152906001019060200180831161032e57829003601f168201915b5050505050965085805461035e90610fcb565b80601f016020809104026020016040519081016040528092919081815260200182805461038a90610fcb565b80156103d75780601f106103ac576101008083540402835291602001916103d7565b820191906000526020600020905b8154815290600101906020018083116103ba57829003601f168201915b505050505095508380546103ea90610fcb565b80601f016020809104026020016040519081016040528092919081815260200182805461041690610fcb565b80156104635780601f1061043857610100808354040283529160200191610463565b820191906000526020600020905b81548152906001019060200180831161044657829003601f168201915b5050505050935082805461047690610fcb565b80601f01602080910402602001604051908101604052809291908181526020018280546104a290610fcb565b80156104ef5780601f106104c4576101008083540402835291602001916104ef565b820191906000526020600020905b8154815290600101906020018083116104d257829003601f168201915b5050505050925080805480602002602001604051908101604052809291908181526020016000905b828210156105a957838290600052602060002090600202016040518060400160405290816000820160009054906101000a900473ffffffffffffffffffffffffffffffffffffffff1673ffffffffffffffffffffffffffffffffffffffff1673ffffffffffffffffffffffffffffffffffffffff16815260200160018201548152505081526020019060010190610517565b505050509050985098509850985098509850985098509850909192939495969798565b600b6020528060005260406000206000915090505481565b600a60003373ffffffffffffffffffffffffffffffffffffffff1673ffffffffffffffffffffffffffffffffffffffff16815260200190815260200160002060009054906101000a900460ff161561063b57600080fd5b3373ffffffffffffffffffffffffffffffffffffffff16600860009054906101000a900473ffffffffffffffffffffffffffffffffffffffff1673ffffffffffffffffffffffffffffffffffffffff16141561069657600080fd5b60405180604001604052803373ffffffffffffffffffffffffffffffffffffffff16815260200142815250600c60003373ffffffffffffffffffffffffffffffffffffffff1673ffffffffffffffffffffffffffffffffffffffff16815260200190815260200160002060008201518160000160006101000a81548173ffffffffffffffffffffffffffffffffffffffff021916908373ffffffffffffffffffffffffffffffffffffffff160217905550602082015181600101559050506009600c60003373ffffffffffffffffffffffffffffffffffffffff1673ffffffffffffffffffffffffffffffffffffffff16815260200190815260200160002090806001815401808255809150506001900390600052602060002090600202016000909190919091506000820160009054906101000a900473ffffffffffffffffffffffffffffffffffffffff168160000160006101000a81548173ffffffffffffffffffffffffffffffffffffffff021916908373ffffffffffffffffffffffffffffffffffffffff1602179055506001820154816001015550506001600a60003373ffffffffffffffffffffffffffffffffffffffff1673ffffffffffffffffffffffffffffffffffffffff16815260200190815260200160002060006101000a81548160ff0219169083151502179055506005600081548092919061089c9061102c565b919050555042600b60003373ffffffffffffffffffffffffffffffffffffffff1673ffffffffffffffffffffffffffffffffffffffff16815260200190815260200160002081905550600660009054906101000a900473ffffffffffffffffffffffffffffffffffffffff1673ffffffffffffffffffffffffffffffffffffffff1663888b34b833600760009054906101000a900473ffffffffffffffffffffffffffffffffffffffff1660016040518463ffffffff1660e01b8152600401610967939291906110c7565b600060405180830381600087803b15801561098157600080fd5b505af1158015610995573d6000803e3d6000fd5b50505050565b600660009054906101000a900473ffffffffffffffffffffffffffffffffffffffff1681565b600860009054906101000a900473ffffffffffffffffffffffffffffffffffffffff1673ffffffffffffffffffffffffffffffffffffffff163373ffffffffffffffffffffffffffffffffffffffff1614610a51576040517f08c379a0000000000000000000000000000000000000000000000000000000008152600401610a489061114a565b60405180910390fd5b600660009054906101000a900473ffffffffffffffffffffffffffffffffffffffff1673ffffffffffffffffffffffffffffffffffffffff1663e4bfadc3600760009054906101000a900473ffffffffffffffffffffffffffffffffffffffff166040518263ffffffff1660e01b8152600401610ace9190610f81565b600060405180830381600087803b158015610ae857600080fd5b505af1158015610afc573d6000803e3d6000fd5b50505050600860009054906101000a900473ffffffffffffffffffffffffffffffffffffffff1673ffffffffffffffffffffffffffffffffffffffff16ff5b600c6020528060005260406000206000915090508060000160009054906101000a900473ffffffffffffffffffffffffffffffffffffffff16908060010154905082565b600760009054906101000a900473ffffffffffffffffffffffffffffffffffffffff1681565b60055481565b600073ffffffffffffffffffffffffffffffffffffffff82169050919050565b6000610bd682610bab565b9050919050565b610be681610bcb565b82525050565b6000602082019050610c016000830184610bdd565b92915050565b600080fd5b6000819050919050565b610c1f81610c0c565b8114610c2a57600080fd5b50565b600081359050610c3c81610c16565b92915050565b600060208284031215610c5857610c57610c07565b5b6000610c6684828501610c2d565b91505092915050565b6000610c7a82610bab565b9050919050565b610c8a81610c6f565b82525050565b610c9981610c0c565b82525050565b6000604082019050610cb46000830185610c81565b610cc16020830184610c90565b9392505050565b600081519050919050565b600082825260208201905092915050565b60005b83811015610d02578082015181840152602081019050610ce7565b83811115610d11576000848401525b50505050565b6000601f19601f8301169050919050565b6000610d3382610cc8565b610d3d8185610cd3565b9350610d4d818560208601610ce4565b610d5681610d17565b840191505092915050565b600081519050919050565b600082825260208201905092915050565b6000819050602082019050919050565b610d9681610c6f565b82525050565b610da581610c0c565b82525050565b604082016000820151610dc16000850182610d8d565b506020820151610dd46020850182610d9c565b50505050565b6000610de68383610dab565b60408301905092915050565b6000602082019050919050565b6000610e0a82610d61565b610e148185610d6c565b9350610e1f83610d7d565b8060005b83811015610e50578151610e378882610dda565b9750610e4283610df2565b925050600181019050610e23565b5085935050505092915050565b600061012082019050610e73600083018c610c81565b610e80602083018b610c81565b8181036040830152610e92818a610d28565b90508181036060830152610ea68189610d28565b9050610eb56080830188610c90565b81810360a0830152610ec78187610d28565b905081810360c0830152610edb8186610d28565b9050610eea60e0830185610c90565b818103610100830152610efd8184610dff565b90509a9950505050505050505050565b610f1681610c6f565b8114610f2157600080fd5b50565b600081359050610f3381610f0d565b92915050565b600060208284031215610f4f57610f4e610c07565b5b6000610f5d84828501610f24565b91505092915050565b6000602082019050610f7b6000830184610c90565b92915050565b6000602082019050610f966000830184610c81565b92915050565b7f4e487b7100000000000000000000000000000000000000000000000000000000600052602260045260246000fd5b60006002820490506001821680610fe357607f821691505b60208210811415610ff757610ff6610f9c565b5b50919050565b7f4e487b7100000000000000000000000000000000000000000000000000000000600052601160045260246000fd5b600061103782610c0c565b91507fffffffffffffffffffffffffffffffffffffffffffffffffffffffffffffffff82141561106a57611069610ffd565b5b600182019050919050565b6000819050919050565b60008160000b9050919050565b6000819050919050565b60006110b16110ac6110a784611075565b61108c565b61107f565b9050919050565b6110c181611096565b82525050565b60006060820190506110dc6000830186610c81565b6110e96020830185610c81565b6110f660408301846110b8565b949350505050565b7f6f6e6c792063726561746f720000000000000000000000000000000000000000600082015250565b6000611134600c83610cd3565b915061113f826110fe565b602082019050919050565b6000602082019050818103600083015261116381611127565b905091905056fea2646970667358221220e9a8dda60da4b6d9a876b7d3fca36162b545aadfebcb4ee05d9b4a2b90e74a8764736f6c634300080a0033a264697066735822122026ec14fce306693d9bac8e6e8378d92bab5c13d7738748071aed111e834b482a64736f6c634300080a0033",
  "immutableReferences": {},
  "source": "// SPDX-License-Identifier: MIT\r\n\r\npragma solidity >=0.7.0 <0.9.0;\r\n\r\n/*\r\n* @author Dovydas Lapinskas - https://dovydas.io\r\n*/\r\ncontract TreasureFactory {\r\n    \r\n    /*\r\n    *   Storage\r\n    */\r\n\r\n    address public factoryAddress;\r\n    address[] public hiders;\r\n    uint public treasureContractsCount;\r\n    Treasure[] public treasureContracts;\r\n    UserActivity[] public activities;\r\n    mapping(address => UserActivity) public activity;\r\n    mapping(address => bool) public isHider;\r\n\r\n    struct UserActivity {\r\n        address user;\r\n        address contractAddress;\r\n        int8 side;\r\n        uint timestamp;\r\n    }\r\n\r\n    /*\r\n    * Construct\r\n    */\r\n    \r\n    // @notice Address of contract stored.\r\n    constructor() {\r\n        factoryAddress = address(this);\r\n    }\r\n\r\n    /*\r\n    *  Functions\r\n    */\r\n\r\n    // @notice Create Treasure contract with initial data.\r\n    function createTreasure(string memory _title, string memory _hint, string memory _latitude, string memory _longitude) public {\r\n        Treasure treasure = new Treasure(_title, _hint, _latitude, _longitude, payable(msg.sender), factoryAddress);\r\n        treasureContracts.push(treasure);\r\n        treasureContractsCount++;\r\n\r\n        if (!isHider[msg.sender]) {\r\n            isHider[msg.sender] = true;\r\n            hiders.push(msg.sender);\r\n        }\r\n    }\r\n\r\n    // @return Array of unique users who have hidden a treasure.\r\n    function getAllHiders() public view returns (address[] memory) {\r\n        return hiders;\r\n    }\r\n\r\n    // @return Array of treasure contracts.\r\n    function getTreasureContracts() public view returns (Treasure[] memory) {\r\n        return treasureContracts;\r\n    }\r\n\r\n    // @return Array of user activity structs.\r\n    function getUsersActivity() public view returns (UserActivity[] memory) {\r\n        return activities;\r\n    }\r\n\r\n    // @notice Adds user activity for activity side (hidden or located).\r\n    function addActivity(address _creator, address _treasureAddress, int8 _side) external {\r\n        activity[_creator] = UserActivity(_creator, _treasureAddress, _side, block.timestamp);\r\n        activities.push(activity[_creator]);\r\n    }\r\n\r\n    // @notice Checks if function is called by treasure owner.\r\n    // @notice Removes treasure.\r\n    function removeTreasure(address _treasureAddress) external {\r\n        require(Treasure(_treasureAddress).treasureAddress() == msg.sender, 'only treasure');\r\n\r\n        Treasure[] storage treasures = treasureContracts;\r\n        /*\r\n        *  @notice Loop through all treasure contracts to find the passed treasure.\r\n        *  @notice Move matched treasure to last array element and remove with .pop()\r\n        */\r\n        for(uint i = 0; i < treasures.length - 1; i++) {\r\n            if( treasures[i] == Treasure(_treasureAddress)) {\r\n                treasures[i] = treasures[treasures.length -1];\r\n                treasures.pop();\r\n            }\r\n        }\r\n    }\r\n}\r\n\r\ncontract Treasure {\r\n\r\n    /*\r\n    *   Storage\r\n    */\r\n\r\n    string title;\r\n    string hint;\r\n    string latitude;\r\n    string longitude;\r\n    uint timestamp;\r\n    uint public locatedCount;\r\n    address public factoryAddress;\r\n    address public treasureAddress;\r\n    address payable public creator;\r\n    FounderActivity[] public finders;\r\n    mapping(address => bool) located;\r\n    mapping(address => uint) public whenLocated;\r\n    mapping(address => FounderActivity) public finder;\r\n\r\n    struct FounderActivity {\r\n        address user;\r\n        uint timestamp;\r\n    }\r\n\r\n    /*\r\n    * Construct\r\n    */\r\n\r\n    // @notice Sets initial treasure data passed from factory contract.\r\n    constructor(string memory _title, string memory _hint, string memory _latitude, string memory _longitude, address payable _creator, address _factoryAddress) {\r\n        treasureAddress = address(this);\r\n        creator = _creator;\r\n        title = _title;\r\n        hint = _hint;\r\n        latitude = _latitude;\r\n        longitude = _longitude;\r\n        timestamp = block.timestamp;\r\n        factoryAddress = _factoryAddress;\r\n\r\n        TreasureFactory(factoryAddress).addActivity(creator, treasureAddress, 0);\r\n    }\r\n\r\n    // @notice Mark treasure as located.\r\n    function locateTreasure() public {\r\n        require(!located[msg.sender]);\r\n        require(creator != msg.sender);\r\n\r\n        finder[msg.sender] = FounderActivity(msg.sender, block.timestamp);\r\n        finders.push(finder[msg.sender]);\r\n        located[msg.sender] = true;\r\n        locatedCount++;\r\n        whenLocated[msg.sender] = block.timestamp;\r\n        TreasureFactory(factoryAddress).addActivity(msg.sender, treasureAddress, 1);\r\n    }\r\n\r\n    // @notice Get summarized treasure data with one function call.\r\n    function getTreasureSummary() public view returns (address, address, string memory, string memory, uint, string memory, string memory, uint, FounderActivity[] memory) {\r\n        return (\r\n            treasureAddress,\r\n            creator,\r\n            title,\r\n            hint,\r\n            timestamp,\r\n            latitude,\r\n            longitude,\r\n            locatedCount,\r\n            finders\r\n        );\r\n    }\r\n    \r\n    // @notice Creator of treasure can call function to remove treasure.\r\n    function remove() onlyCreator() public {\r\n        TreasureFactory(factoryAddress).removeTreasure(treasureAddress);\r\n        selfdestruct(creator);\r\n    }\r\n\r\n    /*\r\n    *   Modifiers\r\n    */\r\n\r\n    modifier onlyCreator() {\r\n        require(msg.sender == creator, 'only creator');\r\n        _;\r\n    }\r\n\r\n}",
  "sourcePath": "F:\\01_Projects\\01_Apps\\treasure-hunt-outdoors\\contracts\\Treasure-Hunt-Outdoors.sol",
  "compiler": {
    "name": "solc",
    "version": "0.8.10+commit.fc410830.Emscripten.clang"
  },
  "schemaVersion": "3.4.3",
  "updatedAt": "2022-10-18T12:39:39.803Z",
  "networkType": "ethereum",
  "devdoc": {
    "kind": "dev",
    "methods": {},
    "version": 1
  },
  "userdoc": {
    "kind": "user",
    "methods": {},
    "version": 1
  }
}