{
  "contractName": "Treasure",
  "abi": [
    {
      "inputs": [
        {
          "internalType": "string",
          "name": "_title",
          "type": "string"
        },
        {
          "internalType": "string",
          "name": "_hint",
          "type": "string"
        },
        {
          "internalType": "string",
          "name": "_latitude",
          "type": "string"
        },
        {
          "internalType": "string",
          "name": "_longitude",
          "type": "string"
        },
        {
          "internalType": "address payable",
          "name": "_creator",
          "type": "address"
        },
        {
          "internalType": "address",
          "name": "_factoryAddress",
          "type": "address"
        }
      ],
      "stateMutability": "nonpayable",
      "type": "constructor"
    },
    {
      "inputs": [],
      "name": "creator",
      "outputs": [
        {
          "internalType": "address payable",
          "name": "",
          "type": "address"
        }
      ],
      "stateMutability": "view",
      "type": "function"
    },
    {
      "inputs": [],
      "name": "factoryAddress",
      "outputs": [
        {
          "internalType": "address",
          "name": "",
          "type": "address"
        }
      ],
      "stateMutability": "view",
      "type": "function"
    },
    {
      "inputs": [
        {
          "internalType": "address",
          "name": "",
          "type": "address"
        }
      ],
      "name": "finder",
      "outputs": [
        {
          "internalType": "address",
          "name": "user",
          "type": "address"
        },
        {
          "internalType": "uint256",
          "name": "timestamp",
          "type": "uint256"
        }
      ],
      "stateMutability": "view",
      "type": "function"
    },
    {
      "inputs": [
        {
          "internalType": "uint256",
          "name": "",
          "type": "uint256"
        }
      ],
      "name": "finders",
      "outputs": [
        {
          "internalType": "address",
          "name": "user",
          "type": "address"
        },
        {
          "internalType": "uint256",
          "name": "timestamp",
          "type": "uint256"
        }
      ],
      "stateMutability": "view",
      "type": "function"
    },
    {
      "inputs": [],
      "name": "locatedCount",
      "outputs": [
        {
          "internalType": "uint256",
          "name": "",
          "type": "uint256"
        }
      ],
      "stateMutability": "view",
      "type": "function"
    },
    {
      "inputs": [],
      "name": "treasureAddress",
      "outputs": [
        {
          "internalType": "address",
          "name": "",
          "type": "address"
        }
      ],
      "stateMutability": "view",
      "type": "function"
    },
    {
      "inputs": [
        {
          "internalType": "address",
          "name": "",
          "type": "address"
        }
      ],
      "name": "whenLocated",
      "outputs": [
        {
          "internalType": "uint256",
          "name": "",
          "type": "uint256"
        }
      ],
      "stateMutability": "view",
      "type": "function"
    },
    {
      "inputs": [],
      "name": "locateTreasure",
      "outputs": [],
      "stateMutability": "nonpayable",
      "type": "function"
    },
    {
      "inputs": [],
      "name": "getTreasureSummary",
      "outputs": [
        {
          "internalType": "address",
          "name": "",
          "type": "address"
        },
        {
          "internalType": "address",
          "name": "",
          "type": "address"
        },
        {
          "internalType": "string",
          "name": "",
          "type": "string"
        },
        {
          "internalType": "string",
          "name": "",
          "type": "string"
        },
        {
          "internalType": "uint256",
          "name": "",
          "type": "uint256"
        },
        {
          "internalType": "string",
          "name": "",
          "type": "string"
        },
        {
          "internalType": "string",
          "name": "",
          "type": "string"
        },
        {
          "internalType": "uint256",
          "name": "",
          "type": "uint256"
        },
        {
          "components": [
            {
              "internalType": "address",
              "name": "user",
              "type": "address"
            },
            {
              "internalType": "uint256",
              "name": "timestamp",
              "type": "uint256"
            }
          ],
          "internalType": "struct Treasure.FounderActivity[]",
          "name": "",
          "type": "tuple[]"
        }
      ],
      "stateMutability": "view",
      "type": "function"
    },
    {
      "inputs": [],
      "name": "remove",
      "outputs": [],
      "stateMutability": "nonpayable",
      "type": "function"
    }
  ],
  "bytecode": "0x60806040523480156200001157600080fd5b506040516200197838038062001978833981810160405281019062000037919062000542565b30600760006101000a81548173ffffffffffffffffffffffffffffffffffffffff021916908373ffffffffffffffffffffffffffffffffffffffff16021790555081600860006101000a81548173ffffffffffffffffffffffffffffffffffffffff021916908373ffffffffffffffffffffffffffffffffffffffff1602179055508560009080519060200190620000d19291906200024b565b508460019080519060200190620000ea9291906200024b565b508360029080519060200190620001039291906200024b565b5082600390805190602001906200011c9291906200024b565b504260048190555080600660006101000a81548173ffffffffffffffffffffffffffffffffffffffff021916908373ffffffffffffffffffffffffffffffffffffffff160217905550600660009054906101000a900473ffffffffffffffffffffffffffffffffffffffff1673ffffffffffffffffffffffffffffffffffffffff1663888b34b8600860009054906101000a900473ffffffffffffffffffffffffffffffffffffffff16600760009054906101000a900473ffffffffffffffffffffffffffffffffffffffff1660006040518463ffffffff1660e01b81526004016200020b9392919062000726565b600060405180830381600087803b1580156200022657600080fd5b505af11580156200023b573d6000803e3d6000fd5b50505050505050505050620007c8565b828054620002599062000792565b90600052602060002090601f0160209004810192826200027d5760008555620002c9565b82601f106200029857805160ff1916838001178555620002c9565b82800160010185558215620002c9579182015b82811115620002c8578251825591602001919060010190620002ab565b5b509050620002d89190620002dc565b5090565b5b80821115620002f7576000816000905550600101620002dd565b5090565b6000604051905090565b600080fd5b600080fd5b600080fd5b600080fd5b6000601f19601f8301169050919050565b7f4e487b7100000000000000000000000000000000000000000000000000000000600052604160045260246000fd5b620003648262000319565b810181811067ffffffffffffffff821117156200038657620003856200032a565b5b80604052505050565b60006200039b620002fb565b9050620003a9828262000359565b919050565b600067ffffffffffffffff821115620003cc57620003cb6200032a565b5b620003d78262000319565b9050602081019050919050565b60005b8381101562000404578082015181840152602081019050620003e7565b8381111562000414576000848401525b50505050565b6000620004316200042b84620003ae565b6200038f565b90508281526020810184848401111562000450576200044f62000314565b5b6200045d848285620003e4565b509392505050565b600082601f8301126200047d576200047c6200030f565b5b81516200048f8482602086016200041a565b91505092915050565b600073ffffffffffffffffffffffffffffffffffffffff82169050919050565b6000620004c58262000498565b9050919050565b620004d781620004b8565b8114620004e357600080fd5b50565b600081519050620004f781620004cc565b92915050565b60006200050a8262000498565b9050919050565b6200051c81620004fd565b81146200052857600080fd5b50565b6000815190506200053c8162000511565b92915050565b60008060008060008060c0878903121562000562576200056162000305565b5b600087015167ffffffffffffffff8111156200058357620005826200030a565b5b6200059189828a0162000465565b965050602087015167ffffffffffffffff811115620005b557620005b46200030a565b5b620005c389828a0162000465565b955050604087015167ffffffffffffffff811115620005e757620005e66200030a565b5b620005f589828a0162000465565b945050606087015167ffffffffffffffff8111156200061957620006186200030a565b5b6200062789828a0162000465565b93505060806200063a89828a01620004e6565b92505060a06200064d89828a016200052b565b9150509295509295509295565b6000819050919050565b6000620006856200067f620006798462000498565b6200065a565b62000498565b9050919050565b6000620006998262000664565b9050919050565b6000620006ad826200068c565b9050919050565b620006bf81620006a0565b82525050565b620006d081620004fd565b82525050565b6000819050919050565b60008160000b9050919050565b60006200070e620007086200070284620006d6565b6200065a565b620006e0565b9050919050565b6200072081620006ed565b82525050565b60006060820190506200073d6000830186620006b4565b6200074c6020830185620006c5565b6200075b604083018462000715565b949350505050565b7f4e487b7100000000000000000000000000000000000000000000000000000000600052602260045260246000fd5b60006002820490506001821680620007ab57607f821691505b60208210811415620007c257620007c162000763565b5b50919050565b6111a080620007d86000396000f3fe608060405234801561001057600080fd5b506004361061009e5760003560e01c8063966dae0e11610066578063966dae0e14610152578063a7f4377914610170578063c1a15eca1461017a578063d46f6b03146101ab578063f47890e2146101c95761009e565b806302d05d3f146100a35780634e1b1177146100c15780635ad7ef33146100f257806372b6e6fa14610118578063907a310214610148575b600080fd5b6100ab6101e7565b6040516100b89190610bec565b60405180910390f35b6100db60048036038101906100d69190610c42565b61020d565b6040516100e9929190610c9f565b60405180910390f35b6100fa610261565b60405161010f99989796959493929190610e5d565b60405180910390f35b610132600480360381019061012d9190610f39565b6105cc565b60405161013f9190610f66565b60405180910390f35b6101506105e4565b005b61015a61099b565b6040516101679190610f81565b60405180910390f35b6101786109c1565b005b610194600480360381019061018f9190610f39565b610b3b565b6040516101a2929190610c9f565b60405180910390f35b6101b3610b7f565b6040516101c09190610f81565b60405180910390f35b6101d1610ba5565b6040516101de9190610f66565b60405180910390f35b600860009054906101000a900473ffffffffffffffffffffffffffffffffffffffff1681565b6009818154811061021d57600080fd5b90600052602060002090600202016000915090508060000160009054906101000a900473ffffffffffffffffffffffffffffffffffffffff16908060010154905082565b600080606080600060608060006060600760009054906101000a900473ffffffffffffffffffffffffffffffffffffffff16600860009054906101000a900473ffffffffffffffffffffffffffffffffffffffff16600060016004546002600360055460098680546102d290610fcb565b80601f01602080910402602001604051908101604052809291908181526020018280546102fe90610fcb565b801561034b5780601f106103205761010080835404028352916020019161034b565b820191906000526020600020905b81548152906001019060200180831161032e57829003601f168201915b5050505050965085805461035e90610fcb565b80601f016020809104026020016040519081016040528092919081815260200182805461038a90610fcb565b80156103d75780601f106103ac576101008083540402835291602001916103d7565b820191906000526020600020905b8154815290600101906020018083116103ba57829003601f168201915b505050505095508380546103ea90610fcb565b80601f016020809104026020016040519081016040528092919081815260200182805461041690610fcb565b80156104635780601f1061043857610100808354040283529160200191610463565b820191906000526020600020905b81548152906001019060200180831161044657829003601f168201915b5050505050935082805461047690610fcb565b80601f01602080910402602001604051908101604052809291908181526020018280546104a290610fcb565b80156104ef5780601f106104c4576101008083540402835291602001916104ef565b820191906000526020600020905b8154815290600101906020018083116104d257829003601f168201915b5050505050925080805480602002602001604051908101604052809291908181526020016000905b828210156105a957838290600052602060002090600202016040518060400160405290816000820160009054906101000a900473ffffffffffffffffffffffffffffffffffffffff1673ffffffffffffffffffffffffffffffffffffffff1673ffffffffffffffffffffffffffffffffffffffff16815260200160018201548152505081526020019060010190610517565b505050509050985098509850985098509850985098509850909192939495969798565b600b6020528060005260406000206000915090505481565b600a60003373ffffffffffffffffffffffffffffffffffffffff1673ffffffffffffffffffffffffffffffffffffffff16815260200190815260200160002060009054906101000a900460ff161561063b57600080fd5b3373ffffffffffffffffffffffffffffffffffffffff16600860009054906101000a900473ffffffffffffffffffffffffffffffffffffffff1673ffffffffffffffffffffffffffffffffffffffff16141561069657600080fd5b60405180604001604052803373ffffffffffffffffffffffffffffffffffffffff16815260200142815250600c60003373ffffffffffffffffffffffffffffffffffffffff1673ffffffffffffffffffffffffffffffffffffffff16815260200190815260200160002060008201518160000160006101000a81548173ffffffffffffffffffffffffffffffffffffffff021916908373ffffffffffffffffffffffffffffffffffffffff160217905550602082015181600101559050506009600c60003373ffffffffffffffffffffffffffffffffffffffff1673ffffffffffffffffffffffffffffffffffffffff16815260200190815260200160002090806001815401808255809150506001900390600052602060002090600202016000909190919091506000820160009054906101000a900473ffffffffffffffffffffffffffffffffffffffff168160000160006101000a81548173ffffffffffffffffffffffffffffffffffffffff021916908373ffffffffffffffffffffffffffffffffffffffff1602179055506001820154816001015550506001600a60003373ffffffffffffffffffffffffffffffffffffffff1673ffffffffffffffffffffffffffffffffffffffff16815260200190815260200160002060006101000a81548160ff0219169083151502179055506005600081548092919061089c9061102c565b919050555042600b60003373ffffffffffffffffffffffffffffffffffffffff1673ffffffffffffffffffffffffffffffffffffffff16815260200190815260200160002081905550600660009054906101000a900473ffffffffffffffffffffffffffffffffffffffff1673ffffffffffffffffffffffffffffffffffffffff1663888b34b833600760009054906101000a900473ffffffffffffffffffffffffffffffffffffffff1660016040518463ffffffff1660e01b8152600401610967939291906110c7565b600060405180830381600087803b15801561098157600080fd5b505af1158015610995573d6000803e3d6000fd5b50505050565b600660009054906101000a900473ffffffffffffffffffffffffffffffffffffffff1681565b600860009054906101000a900473ffffffffffffffffffffffffffffffffffffffff1673ffffffffffffffffffffffffffffffffffffffff163373ffffffffffffffffffffffffffffffffffffffff1614610a51576040517f08c379a0000000000000000000000000000000000000000000000000000000008152600401610a489061114a565b60405180910390fd5b600660009054906101000a900473ffffffffffffffffffffffffffffffffffffffff1673ffffffffffffffffffffffffffffffffffffffff1663e4bfadc3600760009054906101000a900473ffffffffffffffffffffffffffffffffffffffff166040518263ffffffff1660e01b8152600401610ace9190610f81565b600060405180830381600087803b158015610ae857600080fd5b505af1158015610afc573d6000803e3d6000fd5b50505050600860009054906101000a900473ffffffffffffffffffffffffffffffffffffffff1673ffffffffffffffffffffffffffffffffffffffff16ff5b600c6020528060005260406000206000915090508060000160009054906101000a900473ffffffffffffffffffffffffffffffffffffffff16908060010154905082565b600760009054906101000a900473ffffffffffffffffffffffffffffffffffffffff1681565b60055481565b600073ffffffffffffffffffffffffffffffffffffffff82169050919050565b6000610bd682610bab565b9050919050565b610be681610bcb565b82525050565b6000602082019050610c016000830184610bdd565b92915050565b600080fd5b6000819050919050565b610c1f81610c0c565b8114610c2a57600080fd5b50565b600081359050610c3c81610c16565b92915050565b600060208284031215610c5857610c57610c07565b5b6000610c6684828501610c2d565b91505092915050565b6000610c7a82610bab565b9050919050565b610c8a81610c6f565b82525050565b610c9981610c0c565b82525050565b6000604082019050610cb46000830185610c81565b610cc16020830184610c90565b9392505050565b600081519050919050565b600082825260208201905092915050565b60005b83811015610d02578082015181840152602081019050610ce7565b83811115610d11576000848401525b50505050565b6000601f19601f8301169050919050565b6000610d3382610cc8565b610d3d8185610cd3565b9350610d4d818560208601610ce4565b610d5681610d17565b840191505092915050565b600081519050919050565b600082825260208201905092915050565b6000819050602082019050919050565b610d9681610c6f565b82525050565b610da581610c0c565b82525050565b604082016000820151610dc16000850182610d8d565b506020820151610dd46020850182610d9c565b50505050565b6000610de68383610dab565b60408301905092915050565b6000602082019050919050565b6000610e0a82610d61565b610e148185610d6c565b9350610e1f83610d7d565b8060005b83811015610e50578151610e378882610dda565b9750610e4283610df2565b925050600181019050610e23565b5085935050505092915050565b600061012082019050610e73600083018c610c81565b610e80602083018b610c81565b8181036040830152610e92818a610d28565b90508181036060830152610ea68189610d28565b9050610eb56080830188610c90565b81810360a0830152610ec78187610d28565b905081810360c0830152610edb8186610d28565b9050610eea60e0830185610c90565b818103610100830152610efd8184610dff565b90509a9950505050505050505050565b610f1681610c6f565b8114610f2157600080fd5b50565b600081359050610f3381610f0d565b92915050565b600060208284031215610f4f57610f4e610c07565b5b6000610f5d84828501610f24565b91505092915050565b6000602082019050610f7b6000830184610c90565b92915050565b6000602082019050610f966000830184610c81565b92915050565b7f4e487b7100000000000000000000000000000000000000000000000000000000600052602260045260246000fd5b60006002820490506001821680610fe357607f821691505b60208210811415610ff757610ff6610f9c565b5b50919050565b7f4e487b7100000000000000000000000000000000000000000000000000000000600052601160045260246000fd5b600061103782610c0c565b91507fffffffffffffffffffffffffffffffffffffffffffffffffffffffffffffffff82141561106a57611069610ffd565b5b600182019050919050565b6000819050919050565b60008160000b9050919050565b6000819050919050565b60006110b16110ac6110a784611075565b61108c565b61107f565b9050919050565b6110c181611096565b82525050565b60006060820190506110dc6000830186610c81565b6110e96020830185610c81565b6110f660408301846110b8565b949350505050565b7f6f6e6c792063726561746f720000000000000000000000000000000000000000600082015250565b6000611134600c83610cd3565b915061113f826110fe565b602082019050919050565b6000602082019050818103600083015261116381611127565b905091905056fea2646970667358221220e9a8dda60da4b6d9a876b7d3fca36162b545aadfebcb4ee05d9b4a2b90e74a8764736f6c634300080a0033",
  "immutableReferences": {},
  "source": "// SPDX-License-Identifier: MIT\r\n\r\npragma solidity >=0.7.0 <0.9.0;\r\n\r\n/*\r\n* @author Dovydas Lapinskas - https://dovydas.io\r\n*/\r\ncontract TreasureFactory {\r\n    \r\n    /*\r\n    *   Storage\r\n    */\r\n\r\n    address public factoryAddress;\r\n    address[] public hiders;\r\n    uint public treasureContractsCount;\r\n    Treasure[] public treasureContracts;\r\n    UserActivity[] public activities;\r\n    mapping(address => UserActivity) public activity;\r\n    mapping(address => bool) public isHider;\r\n\r\n    struct UserActivity {\r\n        address user;\r\n        address contractAddress;\r\n        int8 side;\r\n        uint timestamp;\r\n    }\r\n\r\n    /*\r\n    * Construct\r\n    */\r\n    \r\n    // @notice Address of contract stored.\r\n    constructor() {\r\n        factoryAddress = address(this);\r\n    }\r\n\r\n    /*\r\n    *  Functions\r\n    */\r\n\r\n    // @notice Create Treasure contract with initial data.\r\n    function createTreasure(string memory _title, string memory _hint, string memory _latitude, string memory _longitude) public {\r\n        Treasure treasure = new Treasure(_title, _hint, _latitude, _longitude, payable(msg.sender), factoryAddress);\r\n        treasureContracts.push(treasure);\r\n        treasureContractsCount++;\r\n\r\n        if (!isHider[msg.sender]) {\r\n            isHider[msg.sender] = true;\r\n            hiders.push(msg.sender);\r\n        }\r\n    }\r\n\r\n    // @return Array of unique users who have hidden a treasure.\r\n    function getAllHiders() public view returns (address[] memory) {\r\n        return hiders;\r\n    }\r\n\r\n    // @return Array of treasure contracts.\r\n    function getTreasureContracts() public view returns (Treasure[] memory) {\r\n        return treasureContracts;\r\n    }\r\n\r\n    // @return Array of user activity structs.\r\n    function getUsersActivity() public view returns (UserActivity[] memory) {\r\n        return activities;\r\n    }\r\n\r\n    // @notice Adds user activity for activity side (hidden or located).\r\n    function addActivity(address _creator, address _treasureAddress, int8 _side) external {\r\n        activity[_creator] = UserActivity(_creator, _treasureAddress, _side, block.timestamp);\r\n        activities.push(activity[_creator]);\r\n    }\r\n\r\n    // @notice Checks if function is called by treasure owner.\r\n    // @notice Removes treasure.\r\n    function removeTreasure(address _treasureAddress) external {\r\n        require(Treasure(_treasureAddress).treasureAddress() == msg.sender, 'only treasure');\r\n\r\n        Treasure[] storage treasures = treasureContracts;\r\n        /*\r\n        *  @notice Loop through all treasure contracts to find the passed treasure.\r\n        *  @notice Move matched treasure to last array element and remove with .pop()\r\n        */\r\n        for(uint i = 0; i < treasures.length - 1; i++) {\r\n            if( treasures[i] == Treasure(_treasureAddress)) {\r\n                treasures[i] = treasures[treasures.length -1];\r\n                treasures.pop();\r\n            }\r\n        }\r\n    }\r\n}\r\n\r\ncontract Treasure {\r\n\r\n    /*\r\n    *   Storage\r\n    */\r\n\r\n    string title;\r\n    string hint;\r\n    string latitude;\r\n    string longitude;\r\n    uint timestamp;\r\n    uint public locatedCount;\r\n    address public factoryAddress;\r\n    address public treasureAddress;\r\n    address payable public creator;\r\n    FounderActivity[] public finders;\r\n    mapping(address => bool) located;\r\n    mapping(address => uint) public whenLocated;\r\n    mapping(address => FounderActivity) public finder;\r\n\r\n    struct FounderActivity {\r\n        address user;\r\n        uint timestamp;\r\n    }\r\n\r\n    /*\r\n    * Construct\r\n    */\r\n\r\n    // @notice Sets initial treasure data passed from factory contract.\r\n    constructor(string memory _title, string memory _hint, string memory _latitude, string memory _longitude, address payable _creator, address _factoryAddress) {\r\n        treasureAddress = address(this);\r\n        creator = _creator;\r\n        title = _title;\r\n        hint = _hint;\r\n        latitude = _latitude;\r\n        longitude = _longitude;\r\n        timestamp = block.timestamp;\r\n        factoryAddress = _factoryAddress;\r\n\r\n        TreasureFactory(factoryAddress).addActivity(creator, treasureAddress, 0);\r\n    }\r\n\r\n    // @notice Mark treasure as located.\r\n    function locateTreasure() public {\r\n        require(!located[msg.sender]);\r\n        require(creator != msg.sender);\r\n\r\n        finder[msg.sender] = FounderActivity(msg.sender, block.timestamp);\r\n        finders.push(finder[msg.sender]);\r\n        located[msg.sender] = true;\r\n        locatedCount++;\r\n        whenLocated[msg.sender] = block.timestamp;\r\n        TreasureFactory(factoryAddress).addActivity(msg.sender, treasureAddress, 1);\r\n    }\r\n\r\n    // @notice Get summarized treasure data with one function call.\r\n    function getTreasureSummary() public view returns (address, address, string memory, string memory, uint, string memory, string memory, uint, FounderActivity[] memory) {\r\n        return (\r\n            treasureAddress,\r\n            creator,\r\n            title,\r\n            hint,\r\n            timestamp,\r\n            latitude,\r\n            longitude,\r\n            locatedCount,\r\n            finders\r\n        );\r\n    }\r\n    \r\n    // @notice Creator of treasure can call function to remove treasure.\r\n    function remove() onlyCreator() public {\r\n        TreasureFactory(factoryAddress).removeTreasure(treasureAddress);\r\n        selfdestruct(creator);\r\n    }\r\n\r\n    /*\r\n    *   Modifiers\r\n    */\r\n\r\n    modifier onlyCreator() {\r\n        require(msg.sender == creator, 'only creator');\r\n        _;\r\n    }\r\n\r\n}",
  "sourcePath": "F:\\01_Projects\\01_Apps\\treasure-hunt-outdoors\\contracts\\Treasure-Hunt-Outdoors.sol",
  "compiler": {
    "name": "solc",
    "version": "0.8.10+commit.fc410830.Emscripten.clang"
  },
  "schemaVersion": "3.4.3",
  "updatedAt": "2022-10-18T12:37:15.642Z",
  "devdoc": {
    "kind": "dev",
    "methods": {},
    "version": 1
  },
  "userdoc": {
    "kind": "user",
    "methods": {},
    "version": 1
  }
}