{
  "contractName": "Treasure",
  "abi": [
    {
      "inputs": [
        {
          "internalType": "string",
          "name": "_title",
          "type": "string"
        },
        {
          "internalType": "string",
          "name": "_hint",
          "type": "string"
        },
        {
          "internalType": "string",
          "name": "_latitude",
          "type": "string"
        },
        {
          "internalType": "string",
          "name": "_longitude",
          "type": "string"
        },
        {
          "internalType": "address payable",
          "name": "_creator",
          "type": "address"
        },
        {
          "internalType": "address",
          "name": "_factoryAddress",
          "type": "address"
        }
      ],
      "stateMutability": "nonpayable",
      "type": "constructor"
    },
    {
      "inputs": [],
      "name": "creator",
      "outputs": [
        {
          "internalType": "address payable",
          "name": "",
          "type": "address"
        }
      ],
      "stateMutability": "view",
      "type": "function"
    },
    {
      "inputs": [],
      "name": "factoryAddress",
      "outputs": [
        {
          "internalType": "address",
          "name": "",
          "type": "address"
        }
      ],
      "stateMutability": "view",
      "type": "function"
    },
    {
      "inputs": [
        {
          "internalType": "address",
          "name": "",
          "type": "address"
        }
      ],
      "name": "finder",
      "outputs": [
        {
          "internalType": "address",
          "name": "user",
          "type": "address"
        },
        {
          "internalType": "uint256",
          "name": "timestamp",
          "type": "uint256"
        }
      ],
      "stateMutability": "view",
      "type": "function"
    },
    {
      "inputs": [
        {
          "internalType": "uint256",
          "name": "",
          "type": "uint256"
        }
      ],
      "name": "finders",
      "outputs": [
        {
          "internalType": "address",
          "name": "user",
          "type": "address"
        },
        {
          "internalType": "uint256",
          "name": "timestamp",
          "type": "uint256"
        }
      ],
      "stateMutability": "view",
      "type": "function"
    },
    {
      "inputs": [],
      "name": "locatedCount",
      "outputs": [
        {
          "internalType": "uint256",
          "name": "",
          "type": "uint256"
        }
      ],
      "stateMutability": "view",
      "type": "function"
    },
    {
      "inputs": [],
      "name": "treasureAddress",
      "outputs": [
        {
          "internalType": "address",
          "name": "",
          "type": "address"
        }
      ],
      "stateMutability": "view",
      "type": "function"
    },
    {
      "inputs": [
        {
          "internalType": "address",
          "name": "",
          "type": "address"
        }
      ],
      "name": "whenLocated",
      "outputs": [
        {
          "internalType": "uint256",
          "name": "",
          "type": "uint256"
        }
      ],
      "stateMutability": "view",
      "type": "function"
    },
    {
      "inputs": [],
      "name": "locateTreasure",
      "outputs": [],
      "stateMutability": "nonpayable",
      "type": "function"
    },
    {
      "inputs": [],
      "name": "getTreasureSummary",
      "outputs": [
        {
          "internalType": "address",
          "name": "",
          "type": "address"
        },
        {
          "internalType": "address",
          "name": "",
          "type": "address"
        },
        {
          "internalType": "string",
          "name": "",
          "type": "string"
        },
        {
          "internalType": "string",
          "name": "",
          "type": "string"
        },
        {
          "internalType": "uint256",
          "name": "",
          "type": "uint256"
        },
        {
          "internalType": "string",
          "name": "",
          "type": "string"
        },
        {
          "internalType": "string",
          "name": "",
          "type": "string"
        },
        {
          "internalType": "uint256",
          "name": "",
          "type": "uint256"
        },
        {
          "components": [
            {
              "internalType": "address",
              "name": "user",
              "type": "address"
            },
            {
              "internalType": "uint256",
              "name": "timestamp",
              "type": "uint256"
            }
          ],
          "internalType": "struct Treasure.FounderActivity[]",
          "name": "",
          "type": "tuple[]"
        }
      ],
      "stateMutability": "view",
      "type": "function"
    },
    {
      "inputs": [],
      "name": "remove",
      "outputs": [],
      "stateMutability": "nonpayable",
      "type": "function"
    }
  ],
  "bytecode": "0x60806040523480156200001157600080fd5b506040516200196f3803806200196f83398181016040528101906200003791906200053f565b30600160006101000a81548173ffffffffffffffffffffffffffffffffffffffff021916908373ffffffffffffffffffffffffffffffffffffffff16021790555081600260006101000a81548173ffffffffffffffffffffffffffffffffffffffff021916908373ffffffffffffffffffffffffffffffffffffffff1602179055508560039080519060200190620000d192919062000248565b508460049080519060200190620000ea92919062000248565b5083600690805190602001906200010392919062000248565b5082600790805190602001906200011c92919062000248565b5042600581905550806000806101000a81548173ffffffffffffffffffffffffffffffffffffffff021916908373ffffffffffffffffffffffffffffffffffffffff16021790555060008054906101000a900473ffffffffffffffffffffffffffffffffffffffff1673ffffffffffffffffffffffffffffffffffffffff1663888b34b8600260009054906101000a900473ffffffffffffffffffffffffffffffffffffffff16600160009054906101000a900473ffffffffffffffffffffffffffffffffffffffff1660006040518463ffffffff1660e01b8152600401620002089392919062000723565b600060405180830381600087803b1580156200022357600080fd5b505af115801562000238573d6000803e3d6000fd5b50505050505050505050620007c5565b82805462000256906200078f565b90600052602060002090601f0160209004810192826200027a5760008555620002c6565b82601f106200029557805160ff1916838001178555620002c6565b82800160010185558215620002c6579182015b82811115620002c5578251825591602001919060010190620002a8565b5b509050620002d59190620002d9565b5090565b5b80821115620002f4576000816000905550600101620002da565b5090565b6000604051905090565b600080fd5b600080fd5b600080fd5b600080fd5b6000601f19601f8301169050919050565b7f4e487b7100000000000000000000000000000000000000000000000000000000600052604160045260246000fd5b620003618262000316565b810181811067ffffffffffffffff8211171562000383576200038262000327565b5b80604052505050565b600062000398620002f8565b9050620003a6828262000356565b919050565b600067ffffffffffffffff821115620003c957620003c862000327565b5b620003d48262000316565b9050602081019050919050565b60005b8381101562000401578082015181840152602081019050620003e4565b8381111562000411576000848401525b50505050565b60006200042e6200042884620003ab565b6200038c565b9050828152602081018484840111156200044d576200044c62000311565b5b6200045a848285620003e1565b509392505050565b600082601f8301126200047a57620004796200030c565b5b81516200048c84826020860162000417565b91505092915050565b600073ffffffffffffffffffffffffffffffffffffffff82169050919050565b6000620004c28262000495565b9050919050565b620004d481620004b5565b8114620004e057600080fd5b50565b600081519050620004f481620004c9565b92915050565b6000620005078262000495565b9050919050565b6200051981620004fa565b81146200052557600080fd5b50565b60008151905062000539816200050e565b92915050565b60008060008060008060c087890312156200055f576200055e62000302565b5b600087015167ffffffffffffffff81111562000580576200057f62000307565b5b6200058e89828a0162000462565b965050602087015167ffffffffffffffff811115620005b257620005b162000307565b5b620005c089828a0162000462565b955050604087015167ffffffffffffffff811115620005e457620005e362000307565b5b620005f289828a0162000462565b945050606087015167ffffffffffffffff81111562000616576200061562000307565b5b6200062489828a0162000462565b93505060806200063789828a01620004e3565b92505060a06200064a89828a0162000528565b9150509295509295509295565b6000819050919050565b6000620006826200067c620006768462000495565b62000657565b62000495565b9050919050565b6000620006968262000661565b9050919050565b6000620006aa8262000689565b9050919050565b620006bc816200069d565b82525050565b620006cd81620004fa565b82525050565b6000819050919050565b60008160000b9050919050565b60006200070b62000705620006ff84620006d3565b62000657565b620006dd565b9050919050565b6200071d81620006ea565b82525050565b60006060820190506200073a6000830186620006b1565b620007496020830185620006c2565b62000758604083018462000712565b949350505050565b7f4e487b7100000000000000000000000000000000000000000000000000000000600052602260045260246000fd5b60006002820490506001821680620007a857607f821691505b60208210811415620007bf57620007be62000760565b5b50919050565b61119a80620007d56000396000f3fe608060405234801561001057600080fd5b506004361061009e5760003560e01c8063966dae0e11610066578063966dae0e14610152578063a7f4377914610170578063c1a15eca1461017a578063d46f6b03146101ab578063f47890e2146101c95761009e565b806302d05d3f146100a35780634e1b1177146100c15780635ad7ef33146100f257806372b6e6fa14610118578063907a310214610148575b600080fd5b6100ab6101e7565b6040516100b89190610be6565b60405180910390f35b6100db60048036038101906100d69190610c3c565b61020d565b6040516100e9929190610c99565b60405180910390f35b6100fa610261565b60405161010f99989796959493929190610e57565b60405180910390f35b610132600480360381019061012d9190610f33565b6105cc565b60405161013f9190610f60565b60405180910390f35b6101506105e4565b005b61015a610999565b6040516101679190610f7b565b60405180910390f35b6101786109bd565b005b610194600480360381019061018f9190610f33565b610b35565b6040516101a2929190610c99565b60405180910390f35b6101b3610b79565b6040516101c09190610f7b565b60405180910390f35b6101d1610b9f565b6040516101de9190610f60565b60405180910390f35b600260009054906101000a900473ffffffffffffffffffffffffffffffffffffffff1681565b600b818154811061021d57600080fd5b90600052602060002090600202016000915090508060000160009054906101000a900473ffffffffffffffffffffffffffffffffffffffff16908060010154905082565b600080606080600060608060006060600160009054906101000a900473ffffffffffffffffffffffffffffffffffffffff16600260009054906101000a900473ffffffffffffffffffffffffffffffffffffffff166003600460055460066007600a54600b8680546102d290610fc5565b80601f01602080910402602001604051908101604052809291908181526020018280546102fe90610fc5565b801561034b5780601f106103205761010080835404028352916020019161034b565b820191906000526020600020905b81548152906001019060200180831161032e57829003601f168201915b5050505050965085805461035e90610fc5565b80601f016020809104026020016040519081016040528092919081815260200182805461038a90610fc5565b80156103d75780601f106103ac576101008083540402835291602001916103d7565b820191906000526020600020905b8154815290600101906020018083116103ba57829003601f168201915b505050505095508380546103ea90610fc5565b80601f016020809104026020016040519081016040528092919081815260200182805461041690610fc5565b80156104635780601f1061043857610100808354040283529160200191610463565b820191906000526020600020905b81548152906001019060200180831161044657829003601f168201915b5050505050935082805461047690610fc5565b80601f01602080910402602001604051908101604052809291908181526020018280546104a290610fc5565b80156104ef5780601f106104c4576101008083540402835291602001916104ef565b820191906000526020600020905b8154815290600101906020018083116104d257829003601f168201915b5050505050925080805480602002602001604051908101604052809291908181526020016000905b828210156105a957838290600052602060002090600202016040518060400160405290816000820160009054906101000a900473ffffffffffffffffffffffffffffffffffffffff1673ffffffffffffffffffffffffffffffffffffffff1673ffffffffffffffffffffffffffffffffffffffff16815260200160018201548152505081526020019060010190610517565b505050509050985098509850985098509850985098509850909192939495969798565b60096020528060005260406000206000915090505481565b600860003373ffffffffffffffffffffffffffffffffffffffff1673ffffffffffffffffffffffffffffffffffffffff16815260200190815260200160002060009054906101000a900460ff161561063b57600080fd5b3373ffffffffffffffffffffffffffffffffffffffff16600260009054906101000a900473ffffffffffffffffffffffffffffffffffffffff1673ffffffffffffffffffffffffffffffffffffffff16141561069657600080fd5b60405180604001604052803373ffffffffffffffffffffffffffffffffffffffff16815260200142815250600c60003373ffffffffffffffffffffffffffffffffffffffff1673ffffffffffffffffffffffffffffffffffffffff16815260200190815260200160002060008201518160000160006101000a81548173ffffffffffffffffffffffffffffffffffffffff021916908373ffffffffffffffffffffffffffffffffffffffff16021790555060208201518160010155905050600b600c60003373ffffffffffffffffffffffffffffffffffffffff1673ffffffffffffffffffffffffffffffffffffffff16815260200190815260200160002090806001815401808255809150506001900390600052602060002090600202016000909190919091506000820160009054906101000a900473ffffffffffffffffffffffffffffffffffffffff168160000160006101000a81548173ffffffffffffffffffffffffffffffffffffffff021916908373ffffffffffffffffffffffffffffffffffffffff1602179055506001820154816001015550506001600860003373ffffffffffffffffffffffffffffffffffffffff1673ffffffffffffffffffffffffffffffffffffffff16815260200190815260200160002060006101000a81548160ff021916908315150217905550600a600081548092919061089c90611026565b919050555042600960003373ffffffffffffffffffffffffffffffffffffffff1673ffffffffffffffffffffffffffffffffffffffff1681526020019081526020016000208190555060008054906101000a900473ffffffffffffffffffffffffffffffffffffffff1673ffffffffffffffffffffffffffffffffffffffff1663888b34b833600160009054906101000a900473ffffffffffffffffffffffffffffffffffffffff1660016040518463ffffffff1660e01b8152600401610965939291906110c1565b600060405180830381600087803b15801561097f57600080fd5b505af1158015610993573d6000803e3d6000fd5b50505050565b60008054906101000a900473ffffffffffffffffffffffffffffffffffffffff1681565b600260009054906101000a900473ffffffffffffffffffffffffffffffffffffffff1673ffffffffffffffffffffffffffffffffffffffff163373ffffffffffffffffffffffffffffffffffffffff1614610a4d576040517f08c379a0000000000000000000000000000000000000000000000000000000008152600401610a4490611144565b60405180910390fd5b60008054906101000a900473ffffffffffffffffffffffffffffffffffffffff1673ffffffffffffffffffffffffffffffffffffffff1663e4bfadc3600160009054906101000a900473ffffffffffffffffffffffffffffffffffffffff166040518263ffffffff1660e01b8152600401610ac89190610f7b565b600060405180830381600087803b158015610ae257600080fd5b505af1158015610af6573d6000803e3d6000fd5b50505050600260009054906101000a900473ffffffffffffffffffffffffffffffffffffffff1673ffffffffffffffffffffffffffffffffffffffff16ff5b600c6020528060005260406000206000915090508060000160009054906101000a900473ffffffffffffffffffffffffffffffffffffffff16908060010154905082565b600160009054906101000a900473ffffffffffffffffffffffffffffffffffffffff1681565b600a5481565b600073ffffffffffffffffffffffffffffffffffffffff82169050919050565b6000610bd082610ba5565b9050919050565b610be081610bc5565b82525050565b6000602082019050610bfb6000830184610bd7565b92915050565b600080fd5b6000819050919050565b610c1981610c06565b8114610c2457600080fd5b50565b600081359050610c3681610c10565b92915050565b600060208284031215610c5257610c51610c01565b5b6000610c6084828501610c27565b91505092915050565b6000610c7482610ba5565b9050919050565b610c8481610c69565b82525050565b610c9381610c06565b82525050565b6000604082019050610cae6000830185610c7b565b610cbb6020830184610c8a565b9392505050565b600081519050919050565b600082825260208201905092915050565b60005b83811015610cfc578082015181840152602081019050610ce1565b83811115610d0b576000848401525b50505050565b6000601f19601f8301169050919050565b6000610d2d82610cc2565b610d378185610ccd565b9350610d47818560208601610cde565b610d5081610d11565b840191505092915050565b600081519050919050565b600082825260208201905092915050565b6000819050602082019050919050565b610d9081610c69565b82525050565b610d9f81610c06565b82525050565b604082016000820151610dbb6000850182610d87565b506020820151610dce6020850182610d96565b50505050565b6000610de08383610da5565b60408301905092915050565b6000602082019050919050565b6000610e0482610d5b565b610e0e8185610d66565b9350610e1983610d77565b8060005b83811015610e4a578151610e318882610dd4565b9750610e3c83610dec565b925050600181019050610e1d565b5085935050505092915050565b600061012082019050610e6d600083018c610c7b565b610e7a602083018b610c7b565b8181036040830152610e8c818a610d22565b90508181036060830152610ea08189610d22565b9050610eaf6080830188610c8a565b81810360a0830152610ec18187610d22565b905081810360c0830152610ed58186610d22565b9050610ee460e0830185610c8a565b818103610100830152610ef78184610df9565b90509a9950505050505050505050565b610f1081610c69565b8114610f1b57600080fd5b50565b600081359050610f2d81610f07565b92915050565b600060208284031215610f4957610f48610c01565b5b6000610f5784828501610f1e565b91505092915050565b6000602082019050610f756000830184610c8a565b92915050565b6000602082019050610f906000830184610c7b565b92915050565b7f4e487b7100000000000000000000000000000000000000000000000000000000600052602260045260246000fd5b60006002820490506001821680610fdd57607f821691505b60208210811415610ff157610ff0610f96565b5b50919050565b7f4e487b7100000000000000000000000000000000000000000000000000000000600052601160045260246000fd5b600061103182610c06565b91507fffffffffffffffffffffffffffffffffffffffffffffffffffffffffffffffff82141561106457611063610ff7565b5b600182019050919050565b6000819050919050565b60008160000b9050919050565b6000819050919050565b60006110ab6110a66110a18461106f565b611086565b611079565b9050919050565b6110bb81611090565b82525050565b60006060820190506110d66000830186610c7b565b6110e36020830185610c7b565b6110f060408301846110b2565b949350505050565b7f6f6e6c792063726561746f720000000000000000000000000000000000000000600082015250565b600061112e600c83610ccd565b9150611139826110f8565b602082019050919050565b6000602082019050818103600083015261115d81611121565b905091905056fea2646970667358221220defce031292bffc3dede1ea19762cd8b1a2ee84583f40bde7f3ed6d617bafcd064736f6c634300080a0033",
  "immutableReferences": {},
  "source": "// SPDX-License-Identifier: GPL-3.0\r\n\r\npragma solidity >=0.7.0 <0.9.0;\r\n\r\ncontract TreasureFactory {\r\n    address public factoryAddress;\r\n    address[] public hiders;\r\n    Treasure[] public treasureContracts;\r\n    UserActivity[] public activities;\r\n    mapping(address => UserActivity) public activity;\r\n    mapping(address => bool) public isHider;\r\n    uint public treasureContractsCount;\r\n\r\n    struct UserActivity {\r\n        address user;\r\n        address contractAddress;\r\n        int8 side;\r\n        uint timestamp;\r\n    }\r\n\r\n    constructor() {\r\n        factoryAddress = address(this);\r\n    }\r\n\r\n    function createTreasure(string memory _title, string memory _hint, string memory _latitude, string memory _longitude) public {\r\n        Treasure treasure = new Treasure(_title, _hint, _latitude, _longitude, payable(msg.sender), factoryAddress);\r\n        treasureContracts.push(treasure);\r\n        treasureContractsCount++;\r\n\r\n        if (!isHider[msg.sender]) {\r\n            isHider[msg.sender] = true;\r\n            hiders.push(msg.sender);\r\n        }\r\n    }\r\n    \r\n    function getAllHiders() public view returns (address[] memory) {\r\n        return hiders;\r\n    }\r\n\r\n    function getTreasureContracts() public view returns (Treasure[] memory) {\r\n        return treasureContracts;\r\n    }\r\n\r\n    function getUsersActivity() public view returns (UserActivity[] memory) {\r\n        return activities;\r\n    }\r\n\r\n    function addActivity(address _creator, address _treasureAddress, int8 _side) external {\r\n        activity[_creator] = UserActivity(_creator, _treasureAddress, _side, block.timestamp);\r\n        activities.push(activity[_creator]);\r\n    }\r\n\r\n    function removeTreasure(address _treasureAddress) external {\r\n        Treasure[] storage treasures = treasureContracts;\r\n\r\n        for(uint i = 0; i < treasures.length - 1; i++) {\r\n            if( treasures[i] == Treasure(_treasureAddress) ) {\r\n            // move to last element?\r\n                treasures[i] = treasures[treasures.length -1];\r\n                treasures.pop();\r\n            }\r\n        }\r\n    }\r\n}\r\n\r\ncontract Treasure {\r\n    address public factoryAddress;\r\n    address public treasureAddress;\r\n    address payable public creator;\r\n    string title;\r\n    string hint;\r\n    uint timestamp;\r\n    string latitude;\r\n    string longitude;\r\n    mapping(address => bool) located;\r\n    mapping(address => uint) public whenLocated;\r\n    uint public locatedCount;\r\n    FounderActivity[] public finders;\r\n    mapping(address => FounderActivity) public finder;\r\n\r\n    struct FounderActivity {\r\n        address user;\r\n        uint timestamp;\r\n    }\r\n\r\n    constructor(string memory _title, string memory _hint, string memory _latitude, string memory _longitude, address payable _creator, address _factoryAddress) {\r\n        treasureAddress = address(this);\r\n        creator = _creator;\r\n        title = _title;\r\n        hint = _hint;\r\n        latitude = _latitude;\r\n        longitude = _longitude;\r\n        timestamp = block.timestamp;\r\n        factoryAddress = _factoryAddress;\r\n\r\n        TreasureFactory(factoryAddress).addActivity(creator, treasureAddress, 0);\r\n    }\r\n\r\n    function locateTreasure() public {\r\n        require(!located[msg.sender]);\r\n        require(creator != msg.sender);\r\n\r\n        finder[msg.sender] = FounderActivity(msg.sender, block.timestamp);\r\n        finders.push(finder[msg.sender]);\r\n        located[msg.sender] = true;\r\n        locatedCount++;\r\n        whenLocated[msg.sender] = block.timestamp;\r\n        TreasureFactory(factoryAddress).addActivity(msg.sender, treasureAddress, 1);\r\n    }\r\n\r\n    function getTreasureSummary() public view returns (address, address, string memory, string memory, uint, string memory, string memory, uint, FounderActivity[] memory) {\r\n        return (\r\n            treasureAddress,\r\n            creator,\r\n            title,\r\n            hint,\r\n            timestamp,\r\n            latitude,\r\n            longitude,\r\n            locatedCount,\r\n            finders\r\n        );\r\n    }\r\n    \r\n    function remove() onlyCreator() public {\r\n        TreasureFactory(factoryAddress).removeTreasure(treasureAddress);\r\n        selfdestruct(creator);\r\n    }\r\n\r\n    modifier onlyCreator() {\r\n        require(msg.sender == creator, 'only creator');\r\n        _;\r\n    }\r\n\r\n}",
  "sourcePath": "E:\\OneDrive\\04 - Projects\\09 - dApps\\treasure-hunt-outdoors\\contracts\\Treasure-Hunt-Outdoors.sol",
  "compiler": {
    "name": "solc",
    "version": "0.8.10+commit.fc410830.Emscripten.clang"
  },
  "schemaVersion": "3.4.3",
  "updatedAt": "2022-08-31T21:00:43.042Z",
  "devdoc": {
    "kind": "dev",
    "methods": {},
    "version": 1
  },
  "userdoc": {
    "kind": "user",
    "methods": {},
    "version": 1
  }
}