{
  "contractName": "TreasureFactory",
  "abi": [
    {
      "inputs": [],
      "stateMutability": "nonpayable",
      "type": "constructor"
    },
    {
      "inputs": [
        {
          "internalType": "uint256",
          "name": "",
          "type": "uint256"
        }
      ],
      "name": "activities",
      "outputs": [
        {
          "internalType": "address",
          "name": "user",
          "type": "address"
        },
        {
          "internalType": "address",
          "name": "contractAddress",
          "type": "address"
        },
        {
          "internalType": "int8",
          "name": "side",
          "type": "int8"
        },
        {
          "internalType": "uint256",
          "name": "timestamp",
          "type": "uint256"
        }
      ],
      "stateMutability": "view",
      "type": "function"
    },
    {
      "inputs": [
        {
          "internalType": "address",
          "name": "",
          "type": "address"
        }
      ],
      "name": "activity",
      "outputs": [
        {
          "internalType": "address",
          "name": "user",
          "type": "address"
        },
        {
          "internalType": "address",
          "name": "contractAddress",
          "type": "address"
        },
        {
          "internalType": "int8",
          "name": "side",
          "type": "int8"
        },
        {
          "internalType": "uint256",
          "name": "timestamp",
          "type": "uint256"
        }
      ],
      "stateMutability": "view",
      "type": "function"
    },
    {
      "inputs": [],
      "name": "factoryAddress",
      "outputs": [
        {
          "internalType": "address",
          "name": "",
          "type": "address"
        }
      ],
      "stateMutability": "view",
      "type": "function"
    },
    {
      "inputs": [
        {
          "internalType": "uint256",
          "name": "",
          "type": "uint256"
        }
      ],
      "name": "hiders",
      "outputs": [
        {
          "internalType": "address",
          "name": "",
          "type": "address"
        }
      ],
      "stateMutability": "view",
      "type": "function"
    },
    {
      "inputs": [
        {
          "internalType": "address",
          "name": "",
          "type": "address"
        }
      ],
      "name": "isHider",
      "outputs": [
        {
          "internalType": "bool",
          "name": "",
          "type": "bool"
        }
      ],
      "stateMutability": "view",
      "type": "function"
    },
    {
      "inputs": [
        {
          "internalType": "uint256",
          "name": "",
          "type": "uint256"
        }
      ],
      "name": "treasureContracts",
      "outputs": [
        {
          "internalType": "contract Treasure",
          "name": "",
          "type": "address"
        }
      ],
      "stateMutability": "view",
      "type": "function"
    },
    {
      "inputs": [],
      "name": "treasureContractsCount",
      "outputs": [
        {
          "internalType": "uint256",
          "name": "",
          "type": "uint256"
        }
      ],
      "stateMutability": "view",
      "type": "function"
    },
    {
      "inputs": [
        {
          "internalType": "string",
          "name": "_title",
          "type": "string"
        },
        {
          "internalType": "string",
          "name": "_hint",
          "type": "string"
        },
        {
          "internalType": "string",
          "name": "_latitude",
          "type": "string"
        },
        {
          "internalType": "string",
          "name": "_longitude",
          "type": "string"
        }
      ],
      "name": "createTreasure",
      "outputs": [],
      "stateMutability": "nonpayable",
      "type": "function"
    },
    {
      "inputs": [],
      "name": "getAllHiders",
      "outputs": [
        {
          "internalType": "address[]",
          "name": "",
          "type": "address[]"
        }
      ],
      "stateMutability": "view",
      "type": "function"
    },
    {
      "inputs": [],
      "name": "getTreasureContracts",
      "outputs": [
        {
          "internalType": "contract Treasure[]",
          "name": "",
          "type": "address[]"
        }
      ],
      "stateMutability": "view",
      "type": "function"
    },
    {
      "inputs": [],
      "name": "getUsersActivity",
      "outputs": [
        {
          "components": [
            {
              "internalType": "address",
              "name": "user",
              "type": "address"
            },
            {
              "internalType": "address",
              "name": "contractAddress",
              "type": "address"
            },
            {
              "internalType": "int8",
              "name": "side",
              "type": "int8"
            },
            {
              "internalType": "uint256",
              "name": "timestamp",
              "type": "uint256"
            }
          ],
          "internalType": "struct TreasureFactory.UserActivity[]",
          "name": "",
          "type": "tuple[]"
        }
      ],
      "stateMutability": "view",
      "type": "function"
    },
    {
      "inputs": [
        {
          "internalType": "address",
          "name": "_creator",
          "type": "address"
        },
        {
          "internalType": "address",
          "name": "_treasureAddress",
          "type": "address"
        },
        {
          "internalType": "int8",
          "name": "_side",
          "type": "int8"
        }
      ],
      "name": "addActivity",
      "outputs": [],
      "stateMutability": "nonpayable",
      "type": "function"
    },
    {
      "inputs": [
        {
          "internalType": "address",
          "name": "_treasureAddress",
          "type": "address"
        }
      ],
      "name": "removeTreasure",
      "outputs": [],
      "stateMutability": "nonpayable",
      "type": "function"
    }
  ],
  "bytecode": "0x608060405234801561001057600080fd5b50306000806101000a81548173ffffffffffffffffffffffffffffffffffffffff021916908373ffffffffffffffffffffffffffffffffffffffff160217905550613259806100606000396000f3fe60806040523480156200001157600080fd5b5060043610620000e25760003560e01c8063888b34b81162000099578063ada2d223116200006f578063ada2d223146200026b578063c3b9276814620002a1578063e4bfadc314620002c3578063f87d7aad14620002e357620000e2565b8063888b34b81462000207578063966dae0e14620002275780639f2aa29b146200024957620000e2565b80630d1657e814620000e757806346377e2614620001205780634cb1f8ae146200015657806358c1994614620001765780637e385f1e14620001ac57806384b504c814620001ce575b600080fd5b620001056004803603810190620000ff919062000dfb565b62000305565b60405162000117949392919062000ea1565b60405180910390f35b6200013e600480360381019062000138919062000dfb565b62000393565b6040516200014d919062000f59565b60405180910390f35b6200017460048036038101906200016e9190620010d8565b620003d3565b005b6200019460048036038101906200018e9190620011f7565b620005cc565b604051620001a3919062001246565b60405180910390f35b620001b6620005ec565b604051620001c5919062001263565b60405180910390f35b620001ec6004803603810190620001e69190620011f7565b620005f2565b604051620001fe949392919062000ea1565b60405180910390f35b6200022560048036038101906200021f9190620012b1565b6200066f565b005b6200023162000937565b6040516200024091906200130d565b60405180910390f35b620002536200095b565b604051620002629190620013f8565b60405180910390f35b62000289600480360381019062000283919062000dfb565b620009eb565b6040516200029891906200130d565b60405180910390f35b620002ab62000a2b565b604051620002ba9190620014d9565b60405180910390f35b620002e16004803603810190620002db9190620011f7565b62000abb565b005b620002ed62000c6a565b604051620002fc919062001639565b60405180910390f35b600381815481106200031657600080fd5b90600052602060002090600302016000915090508060000160009054906101000a900473ffffffffffffffffffffffffffffffffffffffff16908060010160009054906101000a900473ffffffffffffffffffffffffffffffffffffffff16908060010160149054906101000a900460000b908060020154905084565b60028181548110620003a457600080fd5b906000526020600020016000915054906101000a900473ffffffffffffffffffffffffffffffffffffffff1681565b6000848484843360008054906101000a900473ffffffffffffffffffffffffffffffffffffffff16604051620004099062000d9e565b6200041a9695949392919062001715565b604051809103906000f08015801562000437573d6000803e3d6000fd5b5090506002819080600181540180825580915050600190039060005260206000200160009091909190916101000a81548173ffffffffffffffffffffffffffffffffffffffff021916908373ffffffffffffffffffffffffffffffffffffffff16021790555060066000815480929190620004b290620017cd565b9190505550600560003373ffffffffffffffffffffffffffffffffffffffff1673ffffffffffffffffffffffffffffffffffffffff16815260200190815260200160002060009054906101000a900460ff16620005c5576001600560003373ffffffffffffffffffffffffffffffffffffffff1673ffffffffffffffffffffffffffffffffffffffff16815260200190815260200160002060006101000a81548160ff0219169083151502179055506001339080600181540180825580915050600190039060005260206000200160009091909190916101000a81548173ffffffffffffffffffffffffffffffffffffffff021916908373ffffffffffffffffffffffffffffffffffffffff1602179055505b5050505050565b60056020528060005260406000206000915054906101000a900460ff1681565b60065481565b60046020528060005260406000206000915090508060000160009054906101000a900473ffffffffffffffffffffffffffffffffffffffff16908060010160009054906101000a900473ffffffffffffffffffffffffffffffffffffffff16908060010160149054906101000a900460000b908060020154905084565b60405180608001604052808473ffffffffffffffffffffffffffffffffffffffff1681526020018373ffffffffffffffffffffffffffffffffffffffff1681526020018260000b815260200142815250600460008573ffffffffffffffffffffffffffffffffffffffff1673ffffffffffffffffffffffffffffffffffffffff16815260200190815260200160002060008201518160000160006101000a81548173ffffffffffffffffffffffffffffffffffffffff021916908373ffffffffffffffffffffffffffffffffffffffff16021790555060208201518160010160006101000a81548173ffffffffffffffffffffffffffffffffffffffff021916908373ffffffffffffffffffffffffffffffffffffffff16021790555060408201518160010160146101000a81548160ff021916908360000b60ff160217905550606082015181600201559050506003600460008573ffffffffffffffffffffffffffffffffffffffff1673ffffffffffffffffffffffffffffffffffffffff16815260200190815260200160002090806001815401808255809150506001900390600052602060002090600302016000909190919091506000820160009054906101000a900473ffffffffffffffffffffffffffffffffffffffff168160000160006101000a81548173ffffffffffffffffffffffffffffffffffffffff021916908373ffffffffffffffffffffffffffffffffffffffff1602179055506001820160009054906101000a900473ffffffffffffffffffffffffffffffffffffffff168160010160006101000a81548173ffffffffffffffffffffffffffffffffffffffff021916908373ffffffffffffffffffffffffffffffffffffffff1602179055506001820160149054906101000a900460000b8160010160146101000a81548160ff021916908360000b60ff160217905550600282015481600201555050505050565b60008054906101000a900473ffffffffffffffffffffffffffffffffffffffff1681565b60606002805480602002602001604051908101604052809291908181526020018280548015620009e157602002820191906000526020600020905b8160009054906101000a900473ffffffffffffffffffffffffffffffffffffffff1673ffffffffffffffffffffffffffffffffffffffff168152602001906001019080831162000996575b5050505050905090565b60018181548110620009fc57600080fd5b906000526020600020016000915054906101000a900473ffffffffffffffffffffffffffffffffffffffff1681565b6060600180548060200260200160405190810160405280929190818152602001828054801562000ab157602002820191906000526020600020905b8160009054906101000a900473ffffffffffffffffffffffffffffffffffffffff1673ffffffffffffffffffffffffffffffffffffffff168152602001906001019080831162000a66575b5050505050905090565b60006002905060005b6001828054905062000ad791906200181b565b81101562000c65578273ffffffffffffffffffffffffffffffffffffffff1682828154811062000b0c5762000b0b62001856565b5b9060005260206000200160009054906101000a900473ffffffffffffffffffffffffffffffffffffffff1673ffffffffffffffffffffffffffffffffffffffff16141562000c4f57816001838054905062000b6891906200181b565b8154811062000b7c5762000b7b62001856565b5b9060005260206000200160009054906101000a900473ffffffffffffffffffffffffffffffffffffffff1682828154811062000bbd5762000bbc62001856565b5b9060005260206000200160006101000a81548173ffffffffffffffffffffffffffffffffffffffff021916908373ffffffffffffffffffffffffffffffffffffffff1602179055508180548062000c195762000c1862001885565b5b6001900381819060005260206000200160006101000a81549073ffffffffffffffffffffffffffffffffffffffff021916905590555b808062000c5c90620017cd565b91505062000ac4565b505050565b60606003805480602002602001604051908101604052809291908181526020016000905b8282101562000d9557838290600052602060002090600302016040518060800160405290816000820160009054906101000a900473ffffffffffffffffffffffffffffffffffffffff1673ffffffffffffffffffffffffffffffffffffffff1673ffffffffffffffffffffffffffffffffffffffff1681526020016001820160009054906101000a900473ffffffffffffffffffffffffffffffffffffffff1673ffffffffffffffffffffffffffffffffffffffff1673ffffffffffffffffffffffffffffffffffffffff1681526020016001820160149054906101000a900460000b60000b60000b81526020016002820154815250508152602001906001019062000c8e565b50505050905090565b61196f80620018b583390190565b6000604051905090565b600080fd5b600080fd5b6000819050919050565b62000dd58162000dc0565b811462000de157600080fd5b50565b60008135905062000df58162000dca565b92915050565b60006020828403121562000e145762000e1362000db6565b5b600062000e248482850162000de4565b91505092915050565b600073ffffffffffffffffffffffffffffffffffffffff82169050919050565b600062000e5a8262000e2d565b9050919050565b62000e6c8162000e4d565b82525050565b60008160000b9050919050565b62000e8a8162000e72565b82525050565b62000e9b8162000dc0565b82525050565b600060808201905062000eb8600083018762000e61565b62000ec7602083018662000e61565b62000ed6604083018562000e7f565b62000ee5606083018462000e90565b95945050505050565b6000819050919050565b600062000f1962000f1362000f0d8462000e2d565b62000eee565b62000e2d565b9050919050565b600062000f2d8262000ef8565b9050919050565b600062000f418262000f20565b9050919050565b62000f538162000f34565b82525050565b600060208201905062000f70600083018462000f48565b92915050565b600080fd5b600080fd5b6000601f19601f8301169050919050565b7f4e487b7100000000000000000000000000000000000000000000000000000000600052604160045260246000fd5b62000fcb8262000f80565b810181811067ffffffffffffffff8211171562000fed5762000fec62000f91565b5b80604052505050565b60006200100262000dac565b905062001010828262000fc0565b919050565b600067ffffffffffffffff82111562001033576200103262000f91565b5b6200103e8262000f80565b9050602081019050919050565b82818337600083830152505050565b6000620010716200106b8462001015565b62000ff6565b90508281526020810184848401111562001090576200108f62000f7b565b5b6200109d8482856200104b565b509392505050565b600082601f830112620010bd57620010bc62000f76565b5b8135620010cf8482602086016200105a565b91505092915050565b60008060008060808587031215620010f557620010f462000db6565b5b600085013567ffffffffffffffff81111562001116576200111562000dbb565b5b6200112487828801620010a5565b945050602085013567ffffffffffffffff81111562001148576200114762000dbb565b5b6200115687828801620010a5565b935050604085013567ffffffffffffffff8111156200117a576200117962000dbb565b5b6200118887828801620010a5565b925050606085013567ffffffffffffffff811115620011ac57620011ab62000dbb565b5b620011ba87828801620010a5565b91505092959194509250565b620011d18162000e4d565b8114620011dd57600080fd5b50565b600081359050620011f181620011c6565b92915050565b60006020828403121562001210576200120f62000db6565b5b60006200122084828501620011e0565b91505092915050565b60008115159050919050565b620012408162001229565b82525050565b60006020820190506200125d600083018462001235565b92915050565b60006020820190506200127a600083018462000e90565b92915050565b6200128b8162000e72565b81146200129757600080fd5b50565b600081359050620012ab8162001280565b92915050565b600080600060608486031215620012cd57620012cc62000db6565b5b6000620012dd86828701620011e0565b9350506020620012f086828701620011e0565b925050604062001303868287016200129a565b9150509250925092565b600060208201905062001324600083018462000e61565b92915050565b600081519050919050565b600082825260208201905092915050565b6000819050602082019050919050565b620013618162000f34565b82525050565b600062001375838362001356565b60208301905092915050565b6000602082019050919050565b60006200139b826200132a565b620013a7818562001335565b9350620013b48362001346565b8060005b83811015620013eb578151620013cf888262001367565b9750620013dc8362001381565b925050600181019050620013b8565b5085935050505092915050565b600060208201905081810360008301526200141481846200138e565b905092915050565b600081519050919050565b6000819050602082019050919050565b620014428162000e4d565b82525050565b600062001456838362001437565b60208301905092915050565b6000602082019050919050565b60006200147c826200141c565b62001488818562001335565b9350620014958362001427565b8060005b83811015620014cc578151620014b0888262001448565b9750620014bd8362001462565b92505060018101905062001499565b5085935050505092915050565b60006020820190508181036000830152620014f581846200146f565b905092915050565b600081519050919050565b600082825260208201905092915050565b6000819050602082019050919050565b620015348162000e72565b82525050565b620015458162000dc0565b82525050565b60808201600082015162001563600085018262001437565b50602082015162001578602085018262001437565b5060408201516200158d604085018262001529565b506060820151620015a260608501826200153a565b50505050565b6000620015b683836200154b565b60808301905092915050565b6000602082019050919050565b6000620015dc82620014fd565b620015e8818562001508565b9350620015f58362001519565b8060005b838110156200162c578151620016108882620015a8565b97506200161d83620015c2565b925050600181019050620015f9565b5085935050505092915050565b60006020820190508181036000830152620016558184620015cf565b905092915050565b600081519050919050565b600082825260208201905092915050565b60005b83811015620016995780820151818401526020810190506200167c565b83811115620016a9576000848401525b50505050565b6000620016bc826200165d565b620016c8818562001668565b9350620016da81856020860162001679565b620016e58162000f80565b840191505092915050565b6000620016fd8262000e2d565b9050919050565b6200170f81620016f0565b82525050565b600060c0820190508181036000830152620017318189620016af565b90508181036020830152620017478188620016af565b905081810360408301526200175d8187620016af565b90508181036060830152620017738186620016af565b905062001784608083018562001704565b6200179360a083018462000e61565b979650505050505050565b7f4e487b7100000000000000000000000000000000000000000000000000000000600052601160045260246000fd5b6000620017da8262000dc0565b91507fffffffffffffffffffffffffffffffffffffffffffffffffffffffffffffffff82141562001810576200180f6200179e565b5b600182019050919050565b6000620018288262000dc0565b9150620018358362000dc0565b9250828210156200184b576200184a6200179e565b5b828203905092915050565b7f4e487b7100000000000000000000000000000000000000000000000000000000600052603260045260246000fd5b7f4e487b7100000000000000000000000000000000000000000000000000000000600052603160045260246000fdfe60806040523480156200001157600080fd5b506040516200196f3803806200196f83398181016040528101906200003791906200053f565b30600160006101000a81548173ffffffffffffffffffffffffffffffffffffffff021916908373ffffffffffffffffffffffffffffffffffffffff16021790555081600260006101000a81548173ffffffffffffffffffffffffffffffffffffffff021916908373ffffffffffffffffffffffffffffffffffffffff1602179055508560039080519060200190620000d192919062000248565b508460049080519060200190620000ea92919062000248565b5083600690805190602001906200010392919062000248565b5082600790805190602001906200011c92919062000248565b5042600581905550806000806101000a81548173ffffffffffffffffffffffffffffffffffffffff021916908373ffffffffffffffffffffffffffffffffffffffff16021790555060008054906101000a900473ffffffffffffffffffffffffffffffffffffffff1673ffffffffffffffffffffffffffffffffffffffff1663888b34b8600260009054906101000a900473ffffffffffffffffffffffffffffffffffffffff16600160009054906101000a900473ffffffffffffffffffffffffffffffffffffffff1660006040518463ffffffff1660e01b8152600401620002089392919062000723565b600060405180830381600087803b1580156200022357600080fd5b505af115801562000238573d6000803e3d6000fd5b50505050505050505050620007c5565b82805462000256906200078f565b90600052602060002090601f0160209004810192826200027a5760008555620002c6565b82601f106200029557805160ff1916838001178555620002c6565b82800160010185558215620002c6579182015b82811115620002c5578251825591602001919060010190620002a8565b5b509050620002d59190620002d9565b5090565b5b80821115620002f4576000816000905550600101620002da565b5090565b6000604051905090565b600080fd5b600080fd5b600080fd5b600080fd5b6000601f19601f8301169050919050565b7f4e487b7100000000000000000000000000000000000000000000000000000000600052604160045260246000fd5b620003618262000316565b810181811067ffffffffffffffff8211171562000383576200038262000327565b5b80604052505050565b600062000398620002f8565b9050620003a6828262000356565b919050565b600067ffffffffffffffff821115620003c957620003c862000327565b5b620003d48262000316565b9050602081019050919050565b60005b8381101562000401578082015181840152602081019050620003e4565b8381111562000411576000848401525b50505050565b60006200042e6200042884620003ab565b6200038c565b9050828152602081018484840111156200044d576200044c62000311565b5b6200045a848285620003e1565b509392505050565b600082601f8301126200047a57620004796200030c565b5b81516200048c84826020860162000417565b91505092915050565b600073ffffffffffffffffffffffffffffffffffffffff82169050919050565b6000620004c28262000495565b9050919050565b620004d481620004b5565b8114620004e057600080fd5b50565b600081519050620004f481620004c9565b92915050565b6000620005078262000495565b9050919050565b6200051981620004fa565b81146200052557600080fd5b50565b60008151905062000539816200050e565b92915050565b60008060008060008060c087890312156200055f576200055e62000302565b5b600087015167ffffffffffffffff81111562000580576200057f62000307565b5b6200058e89828a0162000462565b965050602087015167ffffffffffffffff811115620005b257620005b162000307565b5b620005c089828a0162000462565b955050604087015167ffffffffffffffff811115620005e457620005e362000307565b5b620005f289828a0162000462565b945050606087015167ffffffffffffffff81111562000616576200061562000307565b5b6200062489828a0162000462565b93505060806200063789828a01620004e3565b92505060a06200064a89828a0162000528565b9150509295509295509295565b6000819050919050565b6000620006826200067c620006768462000495565b62000657565b62000495565b9050919050565b6000620006968262000661565b9050919050565b6000620006aa8262000689565b9050919050565b620006bc816200069d565b82525050565b620006cd81620004fa565b82525050565b6000819050919050565b60008160000b9050919050565b60006200070b62000705620006ff84620006d3565b62000657565b620006dd565b9050919050565b6200071d81620006ea565b82525050565b60006060820190506200073a6000830186620006b1565b620007496020830185620006c2565b62000758604083018462000712565b949350505050565b7f4e487b7100000000000000000000000000000000000000000000000000000000600052602260045260246000fd5b60006002820490506001821680620007a857607f821691505b60208210811415620007bf57620007be62000760565b5b50919050565b61119a80620007d56000396000f3fe608060405234801561001057600080fd5b506004361061009e5760003560e01c8063966dae0e11610066578063966dae0e14610152578063a7f4377914610170578063c1a15eca1461017a578063d46f6b03146101ab578063f47890e2146101c95761009e565b806302d05d3f146100a35780634e1b1177146100c15780635ad7ef33146100f257806372b6e6fa14610118578063907a310214610148575b600080fd5b6100ab6101e7565b6040516100b89190610be6565b60405180910390f35b6100db60048036038101906100d69190610c3c565b61020d565b6040516100e9929190610c99565b60405180910390f35b6100fa610261565b60405161010f99989796959493929190610e57565b60405180910390f35b610132600480360381019061012d9190610f33565b6105cc565b60405161013f9190610f60565b60405180910390f35b6101506105e4565b005b61015a610999565b6040516101679190610f7b565b60405180910390f35b6101786109bd565b005b610194600480360381019061018f9190610f33565b610b35565b6040516101a2929190610c99565b60405180910390f35b6101b3610b79565b6040516101c09190610f7b565b60405180910390f35b6101d1610b9f565b6040516101de9190610f60565b60405180910390f35b600260009054906101000a900473ffffffffffffffffffffffffffffffffffffffff1681565b600b818154811061021d57600080fd5b90600052602060002090600202016000915090508060000160009054906101000a900473ffffffffffffffffffffffffffffffffffffffff16908060010154905082565b600080606080600060608060006060600160009054906101000a900473ffffffffffffffffffffffffffffffffffffffff16600260009054906101000a900473ffffffffffffffffffffffffffffffffffffffff166003600460055460066007600a54600b8680546102d290610fc5565b80601f01602080910402602001604051908101604052809291908181526020018280546102fe90610fc5565b801561034b5780601f106103205761010080835404028352916020019161034b565b820191906000526020600020905b81548152906001019060200180831161032e57829003601f168201915b5050505050965085805461035e90610fc5565b80601f016020809104026020016040519081016040528092919081815260200182805461038a90610fc5565b80156103d75780601f106103ac576101008083540402835291602001916103d7565b820191906000526020600020905b8154815290600101906020018083116103ba57829003601f168201915b505050505095508380546103ea90610fc5565b80601f016020809104026020016040519081016040528092919081815260200182805461041690610fc5565b80156104635780601f1061043857610100808354040283529160200191610463565b820191906000526020600020905b81548152906001019060200180831161044657829003601f168201915b5050505050935082805461047690610fc5565b80601f01602080910402602001604051908101604052809291908181526020018280546104a290610fc5565b80156104ef5780601f106104c4576101008083540402835291602001916104ef565b820191906000526020600020905b8154815290600101906020018083116104d257829003601f168201915b5050505050925080805480602002602001604051908101604052809291908181526020016000905b828210156105a957838290600052602060002090600202016040518060400160405290816000820160009054906101000a900473ffffffffffffffffffffffffffffffffffffffff1673ffffffffffffffffffffffffffffffffffffffff1673ffffffffffffffffffffffffffffffffffffffff16815260200160018201548152505081526020019060010190610517565b505050509050985098509850985098509850985098509850909192939495969798565b60096020528060005260406000206000915090505481565b600860003373ffffffffffffffffffffffffffffffffffffffff1673ffffffffffffffffffffffffffffffffffffffff16815260200190815260200160002060009054906101000a900460ff161561063b57600080fd5b3373ffffffffffffffffffffffffffffffffffffffff16600260009054906101000a900473ffffffffffffffffffffffffffffffffffffffff1673ffffffffffffffffffffffffffffffffffffffff16141561069657600080fd5b60405180604001604052803373ffffffffffffffffffffffffffffffffffffffff16815260200142815250600c60003373ffffffffffffffffffffffffffffffffffffffff1673ffffffffffffffffffffffffffffffffffffffff16815260200190815260200160002060008201518160000160006101000a81548173ffffffffffffffffffffffffffffffffffffffff021916908373ffffffffffffffffffffffffffffffffffffffff16021790555060208201518160010155905050600b600c60003373ffffffffffffffffffffffffffffffffffffffff1673ffffffffffffffffffffffffffffffffffffffff16815260200190815260200160002090806001815401808255809150506001900390600052602060002090600202016000909190919091506000820160009054906101000a900473ffffffffffffffffffffffffffffffffffffffff168160000160006101000a81548173ffffffffffffffffffffffffffffffffffffffff021916908373ffffffffffffffffffffffffffffffffffffffff1602179055506001820154816001015550506001600860003373ffffffffffffffffffffffffffffffffffffffff1673ffffffffffffffffffffffffffffffffffffffff16815260200190815260200160002060006101000a81548160ff021916908315150217905550600a600081548092919061089c90611026565b919050555042600960003373ffffffffffffffffffffffffffffffffffffffff1673ffffffffffffffffffffffffffffffffffffffff1681526020019081526020016000208190555060008054906101000a900473ffffffffffffffffffffffffffffffffffffffff1673ffffffffffffffffffffffffffffffffffffffff1663888b34b833600160009054906101000a900473ffffffffffffffffffffffffffffffffffffffff1660016040518463ffffffff1660e01b8152600401610965939291906110c1565b600060405180830381600087803b15801561097f57600080fd5b505af1158015610993573d6000803e3d6000fd5b50505050565b60008054906101000a900473ffffffffffffffffffffffffffffffffffffffff1681565b600260009054906101000a900473ffffffffffffffffffffffffffffffffffffffff1673ffffffffffffffffffffffffffffffffffffffff163373ffffffffffffffffffffffffffffffffffffffff1614610a4d576040517f08c379a0000000000000000000000000000000000000000000000000000000008152600401610a4490611144565b60405180910390fd5b60008054906101000a900473ffffffffffffffffffffffffffffffffffffffff1673ffffffffffffffffffffffffffffffffffffffff1663e4bfadc3600160009054906101000a900473ffffffffffffffffffffffffffffffffffffffff166040518263ffffffff1660e01b8152600401610ac89190610f7b565b600060405180830381600087803b158015610ae257600080fd5b505af1158015610af6573d6000803e3d6000fd5b50505050600260009054906101000a900473ffffffffffffffffffffffffffffffffffffffff1673ffffffffffffffffffffffffffffffffffffffff16ff5b600c6020528060005260406000206000915090508060000160009054906101000a900473ffffffffffffffffffffffffffffffffffffffff16908060010154905082565b600160009054906101000a900473ffffffffffffffffffffffffffffffffffffffff1681565b600a5481565b600073ffffffffffffffffffffffffffffffffffffffff82169050919050565b6000610bd082610ba5565b9050919050565b610be081610bc5565b82525050565b6000602082019050610bfb6000830184610bd7565b92915050565b600080fd5b6000819050919050565b610c1981610c06565b8114610c2457600080fd5b50565b600081359050610c3681610c10565b92915050565b600060208284031215610c5257610c51610c01565b5b6000610c6084828501610c27565b91505092915050565b6000610c7482610ba5565b9050919050565b610c8481610c69565b82525050565b610c9381610c06565b82525050565b6000604082019050610cae6000830185610c7b565b610cbb6020830184610c8a565b9392505050565b600081519050919050565b600082825260208201905092915050565b60005b83811015610cfc578082015181840152602081019050610ce1565b83811115610d0b576000848401525b50505050565b6000601f19601f8301169050919050565b6000610d2d82610cc2565b610d378185610ccd565b9350610d47818560208601610cde565b610d5081610d11565b840191505092915050565b600081519050919050565b600082825260208201905092915050565b6000819050602082019050919050565b610d9081610c69565b82525050565b610d9f81610c06565b82525050565b604082016000820151610dbb6000850182610d87565b506020820151610dce6020850182610d96565b50505050565b6000610de08383610da5565b60408301905092915050565b6000602082019050919050565b6000610e0482610d5b565b610e0e8185610d66565b9350610e1983610d77565b8060005b83811015610e4a578151610e318882610dd4565b9750610e3c83610dec565b925050600181019050610e1d565b5085935050505092915050565b600061012082019050610e6d600083018c610c7b565b610e7a602083018b610c7b565b8181036040830152610e8c818a610d22565b90508181036060830152610ea08189610d22565b9050610eaf6080830188610c8a565b81810360a0830152610ec18187610d22565b905081810360c0830152610ed58186610d22565b9050610ee460e0830185610c8a565b818103610100830152610ef78184610df9565b90509a9950505050505050505050565b610f1081610c69565b8114610f1b57600080fd5b50565b600081359050610f2d81610f07565b92915050565b600060208284031215610f4957610f48610c01565b5b6000610f5784828501610f1e565b91505092915050565b6000602082019050610f756000830184610c8a565b92915050565b6000602082019050610f906000830184610c7b565b92915050565b7f4e487b7100000000000000000000000000000000000000000000000000000000600052602260045260246000fd5b60006002820490506001821680610fdd57607f821691505b60208210811415610ff157610ff0610f96565b5b50919050565b7f4e487b7100000000000000000000000000000000000000000000000000000000600052601160045260246000fd5b600061103182610c06565b91507fffffffffffffffffffffffffffffffffffffffffffffffffffffffffffffffff82141561106457611063610ff7565b5b600182019050919050565b6000819050919050565b60008160000b9050919050565b6000819050919050565b60006110ab6110a66110a18461106f565b611086565b611079565b9050919050565b6110bb81611090565b82525050565b60006060820190506110d66000830186610c7b565b6110e36020830185610c7b565b6110f060408301846110b2565b949350505050565b7f6f6e6c792063726561746f720000000000000000000000000000000000000000600082015250565b600061112e600c83610ccd565b9150611139826110f8565b602082019050919050565b6000602082019050818103600083015261115d81611121565b905091905056fea2646970667358221220defce031292bffc3dede1ea19762cd8b1a2ee84583f40bde7f3ed6d617bafcd064736f6c634300080a0033a2646970667358221220f58460df35319d865404b3b9e3157d8ea1352a9ec6a3ce9160a8d62d5be3b25e64736f6c634300080a0033",
  "immutableReferences": {},
  "source": "// SPDX-License-Identifier: GPL-3.0\r\n\r\npragma solidity >=0.7.0 <0.9.0;\r\n\r\ncontract TreasureFactory {\r\n    address public factoryAddress;\r\n    address[] public hiders;\r\n    Treasure[] public treasureContracts;\r\n    UserActivity[] public activities;\r\n    mapping(address => UserActivity) public activity;\r\n    mapping(address => bool) public isHider;\r\n    uint public treasureContractsCount;\r\n\r\n    struct UserActivity {\r\n        address user;\r\n        address contractAddress;\r\n        int8 side;\r\n        uint timestamp;\r\n    }\r\n\r\n    constructor() {\r\n        factoryAddress = address(this);\r\n    }\r\n\r\n    function createTreasure(string memory _title, string memory _hint, string memory _latitude, string memory _longitude) public {\r\n        Treasure treasure = new Treasure(_title, _hint, _latitude, _longitude, payable(msg.sender), factoryAddress);\r\n        treasureContracts.push(treasure);\r\n        treasureContractsCount++;\r\n\r\n        if (!isHider[msg.sender]) {\r\n            isHider[msg.sender] = true;\r\n            hiders.push(msg.sender);\r\n        }\r\n    }\r\n    \r\n    function getAllHiders() public view returns (address[] memory) {\r\n        return hiders;\r\n    }\r\n\r\n    function getTreasureContracts() public view returns (Treasure[] memory) {\r\n        return treasureContracts;\r\n    }\r\n\r\n    function getUsersActivity() public view returns (UserActivity[] memory) {\r\n        return activities;\r\n    }\r\n\r\n    function addActivity(address _creator, address _treasureAddress, int8 _side) external {\r\n        activity[_creator] = UserActivity(_creator, _treasureAddress, _side, block.timestamp);\r\n        activities.push(activity[_creator]);\r\n    }\r\n\r\n    function removeTreasure(address _treasureAddress) external {\r\n        Treasure[] storage treasures = treasureContracts;\r\n\r\n        for(uint i = 0; i < treasures.length - 1; i++) {\r\n            if( treasures[i] == Treasure(_treasureAddress) ) {\r\n            // move to last element?\r\n                treasures[i] = treasures[treasures.length -1];\r\n                treasures.pop();\r\n            }\r\n        }\r\n    }\r\n}\r\n\r\ncontract Treasure {\r\n    address public factoryAddress;\r\n    address public treasureAddress;\r\n    address payable public creator;\r\n    string title;\r\n    string hint;\r\n    uint timestamp;\r\n    string latitude;\r\n    string longitude;\r\n    mapping(address => bool) located;\r\n    mapping(address => uint) public whenLocated;\r\n    uint public locatedCount;\r\n    FounderActivity[] public finders;\r\n    mapping(address => FounderActivity) public finder;\r\n\r\n    struct FounderActivity {\r\n        address user;\r\n        uint timestamp;\r\n    }\r\n\r\n    constructor(string memory _title, string memory _hint, string memory _latitude, string memory _longitude, address payable _creator, address _factoryAddress) {\r\n        treasureAddress = address(this);\r\n        creator = _creator;\r\n        title = _title;\r\n        hint = _hint;\r\n        latitude = _latitude;\r\n        longitude = _longitude;\r\n        timestamp = block.timestamp;\r\n        factoryAddress = _factoryAddress;\r\n\r\n        TreasureFactory(factoryAddress).addActivity(creator, treasureAddress, 0);\r\n    }\r\n\r\n    function locateTreasure() public {\r\n        require(!located[msg.sender]);\r\n        require(creator != msg.sender);\r\n\r\n        finder[msg.sender] = FounderActivity(msg.sender, block.timestamp);\r\n        finders.push(finder[msg.sender]);\r\n        located[msg.sender] = true;\r\n        locatedCount++;\r\n        whenLocated[msg.sender] = block.timestamp;\r\n        TreasureFactory(factoryAddress).addActivity(msg.sender, treasureAddress, 1);\r\n    }\r\n\r\n    function getTreasureSummary() public view returns (address, address, string memory, string memory, uint, string memory, string memory, uint, FounderActivity[] memory) {\r\n        return (\r\n            treasureAddress,\r\n            creator,\r\n            title,\r\n            hint,\r\n            timestamp,\r\n            latitude,\r\n            longitude,\r\n            locatedCount,\r\n            finders\r\n        );\r\n    }\r\n    \r\n    function remove() onlyCreator() public {\r\n        TreasureFactory(factoryAddress).removeTreasure(treasureAddress);\r\n        selfdestruct(creator);\r\n    }\r\n\r\n    modifier onlyCreator() {\r\n        require(msg.sender == creator, 'only creator');\r\n        _;\r\n    }\r\n\r\n}",
  "sourcePath": "E:\\OneDrive\\04 - Projects\\09 - dApps\\treasure-hunt-outdoors\\contracts\\Treasure-Hunt-Outdoors.sol",
  "compiler": {
    "name": "solc",
    "version": "0.8.10+commit.fc410830.Emscripten.clang"
  },
  "schemaVersion": "3.4.3",
  "updatedAt": "2022-08-31T21:00:43.055Z",
  "devdoc": {
    "kind": "dev",
    "methods": {},
    "version": 1
  },
  "userdoc": {
    "kind": "user",
    "methods": {},
    "version": 1
  }
}